{
  "contractName": "BambooRoll",
  "abi": [
    {
      "inputs": [
        {
          "internalType": "contract IUniswapV2Router01",
          "name": "_oldRouter",
          "type": "address"
        },
        {
          "internalType": "contract IUniswapV2Router01",
          "name": "_router",
          "type": "address"
        }
      ],
      "stateMutability": "nonpayable",
      "type": "constructor"
    },
    {
      "inputs": [],
      "name": "oldRouter",
      "outputs": [
        {
          "internalType": "contract IUniswapV2Router01",
          "name": "",
          "type": "address"
        }
      ],
      "stateMutability": "view",
      "type": "function"
    },
    {
      "inputs": [],
      "name": "router",
      "outputs": [
        {
          "internalType": "contract IUniswapV2Router01",
          "name": "",
          "type": "address"
        }
      ],
      "stateMutability": "view",
      "type": "function"
    },
    {
      "inputs": [
        {
          "internalType": "address",
          "name": "tokenA",
          "type": "address"
        },
        {
          "internalType": "address",
          "name": "tokenB",
          "type": "address"
        },
        {
          "internalType": "uint256",
          "name": "liquidity",
          "type": "uint256"
        },
        {
          "internalType": "uint256",
          "name": "amountAMin",
          "type": "uint256"
        },
        {
          "internalType": "uint256",
          "name": "amountBMin",
          "type": "uint256"
        },
        {
          "internalType": "uint256",
          "name": "deadline",
          "type": "uint256"
        },
        {
          "internalType": "uint8",
          "name": "v",
          "type": "uint8"
        },
        {
          "internalType": "bytes32",
          "name": "r",
          "type": "bytes32"
        },
        {
          "internalType": "bytes32",
          "name": "s",
          "type": "bytes32"
        }
      ],
      "name": "migrateWithPermit",
      "outputs": [],
      "stateMutability": "nonpayable",
      "type": "function"
    },
    {
      "inputs": [
        {
          "internalType": "address",
          "name": "tokenA",
          "type": "address"
        },
        {
          "internalType": "address",
          "name": "tokenB",
          "type": "address"
        },
        {
          "internalType": "uint256",
          "name": "liquidity",
          "type": "uint256"
        },
        {
          "internalType": "uint256",
          "name": "amountAMin",
          "type": "uint256"
        },
        {
          "internalType": "uint256",
          "name": "amountBMin",
          "type": "uint256"
        },
        {
          "internalType": "uint256",
          "name": "deadline",
          "type": "uint256"
        }
      ],
      "name": "migrate",
      "outputs": [],
      "stateMutability": "nonpayable",
      "type": "function"
    }
  ],
  "bytecode": "0x608060405234801561001057600080fd5b506040516111693803806111698339818101604052604081101561003357600080fd5b508051602090910151600080546001600160a01b039384166001600160a01b031991821617909155600180549390921692169190911790556110ef8061007a6000396000f3fe608060405234801561001057600080fd5b506004361061004c5760003560e01c8063396ac32814610051578063964c1f98146100b2578063aac55b39146100d6578063f887ea401461011e575b600080fd5b6100b0600480360361012081101561006857600080fd5b506001600160a01b03813581169160208101359091169060408101359060608101359060808101359060a08101359060ff60c0820135169060e0810135906101000135610126565b005b6100ba6101da565b604080516001600160a01b039092168252519081900360200190f35b6100b0600480360360c08110156100ec57600080fd5b506001600160a01b03813581169160208101359091169060408101359060608101359060808101359060a001356101e9565b6100ba610297565b60006101328a8a6102a6565b6040805163d505accf60e01b8152336004820152306024820152604481018b90526064810188905260ff8716608482015260a4810186905260c4810185905290519192506001600160a01b0383169163d505accf9160e48082019260009290919082900301818387803b1580156101a857600080fd5b505af11580156101bc573d6000803e3d6000fd5b505050506101ce8a8a8a8a8a8a6101e9565b50505050505050505050565b6000546001600160a01b031681565b42811015610233576040805162461bcd60e51b815260206004820152601260248201527114185b991854ddd85c0e881156141254915160721b604482015290519081900360640190fd5b6000806102448888888888886103dc565b915091506000806102578a8a86866105b8565b9150915081841115610279576102796001600160a01b038b16338487036106f6565b808311156101ce576101ce6001600160a01b038a16338386036106f6565b6001546001600160a01b031681565b60008060006102b5858561074d565b9150915060008054906101000a90046001600160a01b03166001600160a01b031663c45a01556040518163ffffffff1660e01b815260040160206040518083038186803b15801561030557600080fd5b505afa158015610319573d6000803e3d6000fd5b505050506040513d602081101561032f57600080fd5b5051604080516bffffffffffffffffffffffff19606095861b811660208381019190915294861b81166034830152825160288184030181526048830184528051908601206001600160f81b031960688401529390951b9094166069850152607d8401919091527f96e8ac4277198ff8b6f785478aa9a39f403cb768dd02cbee326c3e7da348845f609d808501919091528151808503909101815260bd909301905281519101209392505050565b60008060006103eb89896102a6565b604080516323b872dd60e01b81523360048201526001600160a01b03831660248201819052604482018b9052915192935090916323b872dd916064808201926020929091908290030181600087803b15801561044657600080fd5b505af115801561045a573d6000803e3d6000fd5b505050506040513d602081101561047057600080fd5b50506040805163226bf2d160e21b8152306004820152815160009283926001600160a01b038616926389afcb449260248084019391929182900301818787803b1580156104bc57600080fd5b505af11580156104d0573d6000803e3d6000fd5b505050506040513d60408110156104e657600080fd5b508051602090910151909250905060006105008c8c61074d565b509050806001600160a01b03168c6001600160a01b031614610523578183610526565b82825b90965094508886101561056a5760405162461bcd60e51b81526004018080602001828103825260218152602001806110016021913960400191505060405180910390fd5b878510156105a95760405162461bcd60e51b815260040180806020018281038252602181526020018061104a6021913960400191505060405180910390fd5b50505050965096945050505050565b6000806105c78686868661082b565b6001546040805163c45a015560e01b8152905193955091935060009261064b926001600160a01b039092169163c45a0155916004808301926020929190829003018186803b15801561061857600080fd5b505afa15801561062c573d6000803e3d6000fd5b505050506040513d602081101561064257600080fd5b50518888610a48565b90506106616001600160a01b03881682856106f6565b6106756001600160a01b03871682846106f6565b604080516335313c2160e11b815233600482015290516001600160a01b03831691636a6278429160248083019260209291908290030181600087803b1580156106bd57600080fd5b505af11580156106d1573d6000803e3d6000fd5b505050506040513d60208110156106e757600080fd5b50929791965090945050505050565b604080516001600160a01b038416602482015260448082018490528251808303909101815260649091019091526020810180516001600160e01b031663a9059cbb60e01b179052610748908490610b08565b505050565b600080826001600160a01b0316846001600160a01b031614156107a15760405162461bcd60e51b8152600401808060200182810382526025815260200180610fb66025913960400191505060405180910390fd5b826001600160a01b0316846001600160a01b0316106107c15782846107c4565b83835b90925090506001600160a01b038216610824576040805162461bcd60e51b815260206004820152601e60248201527f556e697377617056324c6962726172793a205a45524f5f414444524553530000604482015290519081900360640190fd5b9250929050565b6000806000600160009054906101000a90046001600160a01b03166001600160a01b031663c45a01556040518163ffffffff1660e01b815260040160206040518083038186803b15801561087e57600080fd5b505afa158015610892573d6000803e3d6000fd5b505050506040513d60208110156108a857600080fd5b50516040805163e6a4390560e01b81526001600160a01b038a81166004830152898116602483015291519293506000929184169163e6a4390591604480820192602092909190829003018186803b15801561090257600080fd5b505afa158015610916573d6000803e3d6000fd5b505050506040513d602081101561092c57600080fd5b50516001600160a01b031614156109ca57806001600160a01b031663c9c6539688886040518363ffffffff1660e01b815260040180836001600160a01b03168152602001826001600160a01b0316815260200192505050602060405180830381600087803b15801561099d57600080fd5b505af11580156109b1573d6000803e3d6000fd5b505050506040513d60208110156109c757600080fd5b50505b6000806109d8838a8a610bb9565b915091508160001480156109ea575080155b156109fa57869450859350610a3c565b6000610a07888484610c87565b9050868111610a1b57879550935083610a3a565b6000610a28888486610c87565b905088811115610a3457fe5b95508694505b505b50505094509492505050565b6000806000610a57858561074d565b604080516bffffffffffffffffffffffff19606094851b811660208084019190915293851b81166034830152825160288184030181526048830184528051908501206001600160f81b031960688401529a90941b9093166069840152607d8301989098527fe18a34eb0e04b04f7a0ac29a6e80748dca96319b42c54d679cb821dca90c6303609d808401919091528851808403909101815260bd909201909752805196019590952095945050505050565b6060610b5d826040518060400160405280602081526020017f5361666545524332303a206c6f772d6c6576656c2063616c6c206661696c6564815250856001600160a01b0316610d2d9092919063ffffffff16565b80519091501561074857808060200190516020811015610b7c57600080fd5b50516107485760405162461bcd60e51b815260040180806020018281038252602a815260200180611090602a913960400191505060405180910390fd5b6000806000610bc8858561074d565b509050600080610bd9888888610a48565b6001600160a01b0316630902f1ac6040518163ffffffff1660e01b815260040160606040518083038186803b158015610c1157600080fd5b505afa158015610c25573d6000803e3d6000fd5b505050506040513d6060811015610c3b57600080fd5b5080516020909101516dffffffffffffffffffffffffffff91821693501690506001600160a01b0387811690841614610c75578082610c78565b81815b90999098509650505050505050565b6000808411610cc75760405162461bcd60e51b815260040180806020018281038252602581526020018061106b6025913960400191505060405180910390fd5b600083118015610cd75750600082115b610d125760405162461bcd60e51b81526004018080602001828103825260288152602001806110226028913960400191505060405180910390fd5b82610d1d8584610d46565b81610d2457fe5b04949350505050565b6060610d3c8484600085610daf565b90505b9392505050565b6000811580610d6157505080820282828281610d5e57fe5b04145b610da9576040805162461bcd60e51b815260206004820152601460248201527364732d6d6174682d6d756c2d6f766572666c6f7760601b604482015290519081900360640190fd5b92915050565b606082471015610df05760405162461bcd60e51b8152600401808060200182810382526026815260200180610fdb6026913960400191505060405180910390fd5b610df985610f0b565b610e4a576040805162461bcd60e51b815260206004820152601d60248201527f416464726573733a2063616c6c20746f206e6f6e2d636f6e7472616374000000604482015290519081900360640190fd5b60006060866001600160a01b031685876040518082805190602001908083835b60208310610e895780518252601f199092019160209182019101610e6a565b6001836020036101000a03801982511681845116808217855250505050505090500191505060006040518083038185875af1925050503d8060008114610eeb576040519150601f19603f3d011682016040523d82523d6000602084013e610ef0565b606091505b5091509150610f00828286610f11565b979650505050505050565b3b151590565b60608315610f20575081610d3f565b825115610f305782518084602001fd5b8160405162461bcd60e51b81526004018080602001828103825283818151815260200191508051906020019080838360005b83811015610f7a578181015183820152602001610f62565b50505050905090810190601f168015610fa75780820380516001836020036101000a031916815260200191505b509250505060405180910390fdfe556e697377617056324c6962726172793a204944454e544943414c5f414444524553534553416464726573733a20696e73756666696369656e742062616c616e636520666f722063616c6c42616d626f6f526f6c6c3a20494e53554646494349454e545f415f414d4f554e54556e697377617056324c6962726172793a20494e53554646494349454e545f4c495155494449545942616d626f6f526f6c6c3a20494e53554646494349454e545f425f414d4f554e54556e697377617056324c6962726172793a20494e53554646494349454e545f414d4f554e545361666545524332303a204552433230206f7065726174696f6e20646964206e6f742073756363656564a2646970667358221220bf5f41db72fb4c3808877884fc319b6b593efbec931c51f5ffffd6787f7c01e164736f6c634300060c0033",
  "immutableReferences": {},
  "source": "// SPDX-License-Identifier: MIT\r\n\r\npragma solidity 0.6.12;\r\n\r\nimport \"@openzeppelin/contracts/token/ERC20/IERC20.sol\";\r\nimport \"@openzeppelin/contracts/token/ERC20/SafeERC20.sol\";\r\nimport \"./uniswapv2/interfaces/IUniswapV2Pair.sol\";\r\nimport \"./uniswapv2/interfaces/IUniswapV2Router01.sol\";\r\nimport \"./uniswapv2/interfaces/IUniswapV2Factory.sol\";\r\nimport \"./uniswapv2/libraries/UniswapV2Library.sol\";\r\n\r\n// BambooRoll helps your migrate your existing Uniswap LP tokens to PandaSwap LP ones\r\ncontract BambooRoll {\r\n    using SafeERC20 for IERC20;\r\n\r\n    IUniswapV2Router01 public oldRouter;\r\n    IUniswapV2Router01 public router;\r\n\r\n    constructor(IUniswapV2Router01 _oldRouter, IUniswapV2Router01 _router) public {\r\n        oldRouter = _oldRouter;\r\n        router = _router;\r\n    }\r\n\r\n    function migrateWithPermit(\r\n        address tokenA,\r\n        address tokenB,\r\n        uint256 liquidity,\r\n        uint256 amountAMin,\r\n        uint256 amountBMin,\r\n        uint256 deadline,\r\n        uint8 v,\r\n        bytes32 r,\r\n        bytes32 s\r\n    ) public {\r\n        IUniswapV2Pair pair = IUniswapV2Pair(pairForOldRouter(tokenA, tokenB));\r\n        pair.permit(msg.sender, address(this), liquidity, deadline, v, r, s);\r\n\r\n        migrate(tokenA, tokenB, liquidity, amountAMin, amountBMin, deadline);\r\n    }\r\n\r\n    // msg.sender should have approved 'liquidity' amount of LP token of 'tokenA' and 'tokenB'\r\n    function migrate(\r\n        address tokenA,\r\n        address tokenB,\r\n        uint256 liquidity,\r\n        uint256 amountAMin,\r\n        uint256 amountBMin,\r\n        uint256 deadline\r\n    ) public {\r\n        require(deadline >= block.timestamp, 'PandaSwap: EXPIRED');\r\n\r\n        // Remove liquidity from the old router with permit\r\n        (uint256 amountA, uint256 amountB) = removeLiquidity(\r\n            tokenA,\r\n            tokenB,\r\n            liquidity,\r\n            amountAMin,\r\n            amountBMin,\r\n            deadline\r\n        );\r\n\r\n        // Add liquidity to the new router\r\n        (uint256 pooledAmountA, uint256 pooledAmountB) = addLiquidity(tokenA, tokenB, amountA, amountB);\r\n\r\n        // Send remaining tokens to msg.sender\r\n        if (amountA > pooledAmountA) {\r\n            IERC20(tokenA).safeTransfer(msg.sender, amountA - pooledAmountA);\r\n        }\r\n        if (amountB > pooledAmountB) {\r\n            IERC20(tokenB).safeTransfer(msg.sender, amountB - pooledAmountB);\r\n        }\r\n    }\r\n\r\n    function removeLiquidity(\r\n        address tokenA,\r\n        address tokenB,\r\n        uint256 liquidity,\r\n        uint256 amountAMin,\r\n        uint256 amountBMin,\r\n        uint256 deadline\r\n    ) internal returns (uint256 amountA, uint256 amountB) {\r\n        IUniswapV2Pair pair = IUniswapV2Pair(pairForOldRouter(tokenA, tokenB));\r\n        pair.transferFrom(msg.sender, address(pair), liquidity);\r\n        (uint256 amount0, uint256 amount1) = pair.burn(address(this));\r\n        (address token0,) = UniswapV2Library.sortTokens(tokenA, tokenB);\r\n        (amountA, amountB) = tokenA == token0 ? (amount0, amount1) : (amount1, amount0);\r\n        require(amountA >= amountAMin, 'BambooRoll: INSUFFICIENT_A_AMOUNT');\r\n        require(amountB >= amountBMin, 'BambooRoll: INSUFFICIENT_B_AMOUNT');\r\n    }\r\n\r\n    // calculates the CREATE2 address for a pair without making any external calls\r\n    function pairForOldRouter(address tokenA, address tokenB) internal view returns (address pair) {\r\n        (address token0, address token1) = UniswapV2Library.sortTokens(tokenA, tokenB);\r\n        pair = address(uint(keccak256(abi.encodePacked(\r\n                hex'ff',\r\n                oldRouter.factory(),\r\n                keccak256(abi.encodePacked(token0, token1)),\r\n                hex'96e8ac4277198ff8b6f785478aa9a39f403cb768dd02cbee326c3e7da348845f' // init code hash\r\n            ))));\r\n    }\r\n\r\n    function addLiquidity(\r\n        address tokenA,\r\n        address tokenB,\r\n        uint256 amountADesired,\r\n        uint256 amountBDesired\r\n    ) internal returns (uint amountA, uint amountB) {\r\n        (amountA, amountB) = _addLiquidity(tokenA, tokenB, amountADesired, amountBDesired);\r\n        address pair = UniswapV2Library.pairFor(router.factory(), tokenA, tokenB);\r\n        IERC20(tokenA).safeTransfer(pair, amountA);\r\n        IERC20(tokenB).safeTransfer(pair, amountB);\r\n        IUniswapV2Pair(pair).mint(msg.sender);\r\n    }\r\n\r\n    function _addLiquidity(\r\n        address tokenA,\r\n        address tokenB,\r\n        uint256 amountADesired,\r\n        uint256 amountBDesired\r\n    ) internal returns (uint256 amountA, uint256 amountB) {\r\n        // create the pair if it doesn't exist yet\r\n        IUniswapV2Factory factory = IUniswapV2Factory(router.factory());\r\n        if (factory.getPair(tokenA, tokenB) == address(0)) {\r\n            factory.createPair(tokenA, tokenB);\r\n        }\r\n        (uint256 reserveA, uint256 reserveB) = UniswapV2Library.getReserves(address(factory), tokenA, tokenB);\r\n        if (reserveA == 0 && reserveB == 0) {\r\n            (amountA, amountB) = (amountADesired, amountBDesired);\r\n        } else {\r\n            uint256 amountBOptimal = UniswapV2Library.quote(amountADesired, reserveA, reserveB);\r\n            if (amountBOptimal <= amountBDesired) {\r\n                (amountA, amountB) = (amountADesired, amountBOptimal);\r\n            } else {\r\n                uint256 amountAOptimal = UniswapV2Library.quote(amountBDesired, reserveB, reserveA);\r\n                assert(amountAOptimal <= amountADesired);\r\n                (amountA, amountB) = (amountAOptimal, amountBDesired);\r\n            }\r\n        }\r\n    }\r\n}\r\n",
  "sourcePath": "C:/Users/user/Documents/GitHub/pandaswap-contracts/contracts/BambooRoll.sol",
  "compiler": {
    "name": "solc",
    "version": "0.6.12+commit.27d51765.Emscripten.clang"
  },
  "schemaVersion": "3.3.4",
  "updatedAt": "2021-03-21T21:12:05.246Z",
  "devdoc": {
    "kind": "dev",
    "methods": {},
    "version": 1
  },
  "userdoc": {
    "kind": "user",
    "methods": {},
    "version": 1
  }
}