{
  "contractName": "BambooMaker",
  "abi": [
    {
      "inputs": [
        {
          "internalType": "address",
          "name": "_factory",
          "type": "address"
        },
        {
          "internalType": "address",
          "name": "_bar",
          "type": "address"
        },
        {
          "internalType": "address",
          "name": "_bamboo",
          "type": "address"
        },
        {
          "internalType": "address",
          "name": "_weth",
          "type": "address"
        }
      ],
      "stateMutability": "nonpayable",
      "type": "constructor"
    },
    {
      "anonymous": false,
      "inputs": [
        {
          "indexed": true,
          "internalType": "address",
          "name": "token",
          "type": "address"
        },
        {
          "indexed": true,
          "internalType": "address",
          "name": "bridge",
          "type": "address"
        }
      ],
      "name": "LogBridgeSet",
      "type": "event"
    },
    {
      "anonymous": false,
      "inputs": [
        {
          "indexed": true,
          "internalType": "address",
          "name": "server",
          "type": "address"
        },
        {
          "indexed": true,
          "internalType": "address",
          "name": "token0",
          "type": "address"
        },
        {
          "indexed": true,
          "internalType": "address",
          "name": "token1",
          "type": "address"
        },
        {
          "indexed": false,
          "internalType": "uint256",
          "name": "amount0",
          "type": "uint256"
        },
        {
          "indexed": false,
          "internalType": "uint256",
          "name": "amount1",
          "type": "uint256"
        },
        {
          "indexed": false,
          "internalType": "uint256",
          "name": "amountSUSHI",
          "type": "uint256"
        }
      ],
      "name": "LogConvert",
      "type": "event"
    },
    {
      "anonymous": false,
      "inputs": [
        {
          "indexed": true,
          "internalType": "address",
          "name": "previousOwner",
          "type": "address"
        },
        {
          "indexed": true,
          "internalType": "address",
          "name": "newOwner",
          "type": "address"
        }
      ],
      "name": "OwnershipTransferred",
      "type": "event"
    },
    {
      "inputs": [],
      "name": "bar",
      "outputs": [
        {
          "internalType": "address",
          "name": "",
          "type": "address"
        }
      ],
      "stateMutability": "view",
      "type": "function"
    },
    {
      "inputs": [],
      "name": "factory",
      "outputs": [
        {
          "internalType": "contract IUniswapV2Factory",
          "name": "",
          "type": "address"
        }
      ],
      "stateMutability": "view",
      "type": "function"
    },
    {
      "inputs": [],
      "name": "owner",
      "outputs": [
        {
          "internalType": "address",
          "name": "",
          "type": "address"
        }
      ],
      "stateMutability": "view",
      "type": "function"
    },
    {
      "inputs": [],
      "name": "renounceOwnership",
      "outputs": [],
      "stateMutability": "nonpayable",
      "type": "function"
    },
    {
      "inputs": [
        {
          "internalType": "address",
          "name": "newOwner",
          "type": "address"
        }
      ],
      "name": "transferOwnership",
      "outputs": [],
      "stateMutability": "nonpayable",
      "type": "function"
    },
    {
      "inputs": [
        {
          "internalType": "address",
          "name": "token",
          "type": "address"
        }
      ],
      "name": "bridgeFor",
      "outputs": [
        {
          "internalType": "address",
          "name": "bridge",
          "type": "address"
        }
      ],
      "stateMutability": "view",
      "type": "function"
    },
    {
      "inputs": [
        {
          "internalType": "address",
          "name": "token",
          "type": "address"
        },
        {
          "internalType": "address",
          "name": "bridge",
          "type": "address"
        }
      ],
      "name": "setBridge",
      "outputs": [],
      "stateMutability": "nonpayable",
      "type": "function"
    },
    {
      "inputs": [
        {
          "internalType": "address",
          "name": "token0",
          "type": "address"
        },
        {
          "internalType": "address",
          "name": "token1",
          "type": "address"
        }
      ],
      "name": "convert",
      "outputs": [],
      "stateMutability": "nonpayable",
      "type": "function"
    },
    {
      "inputs": [
        {
          "internalType": "address[]",
          "name": "token0",
          "type": "address[]"
        },
        {
          "internalType": "address[]",
          "name": "token1",
          "type": "address[]"
        }
      ],
      "name": "convertMultiple",
      "outputs": [],
      "stateMutability": "nonpayable",
      "type": "function"
    }
  ],
  "bytecode": "0x61010060405234801561001157600080fd5b506040516119cc3803806119cc8339818101604052608081101561003457600080fd5b508051602082015160408301516060909301519192909160006100556100ce565b600080546001600160a01b0319166001600160a01b0383169081178255604051929350917f8be0079c531659141344cd1fd0a4f28419497f9722a3daafe3b4186f6b6457e0908290a3506001600160601b0319606094851b811660805292841b831660a05290831b821660c05290911b1660e0526100d2565b3390565b60805160601c60a05160601c60c05160601c60e05160601c61184b6101816000398061046c528061058a5280610b845280610bc15280610d665280610da35280610dcc5280610df95280610e365280610e5f52508061042f5280610aee5280610b335280610c215280610c665280610cca5280610d0f528061104f5250806107475280610b555280610c885280610d31528061107152508061060f528061076d52806110a1525061184b6000f3fe608060405234801561001057600080fd5b50600436106100935760003560e01c8063a761a93911610066578063a761a939146101b6578063bd1b820c146101dc578063c45a01551461020a578063f2fde38b14610212578063febb0f7e1461023857610093565b8063303e6aa414610098578063715018a61461015c5780638da5cb5b146101645780639d22ae8c14610188575b600080fd5b61015a600480360360408110156100ae57600080fd5b8101906020810181356401000000008111156100c957600080fd5b8201836020820111156100db57600080fd5b803590602001918460208302840111640100000000831117156100fd57600080fd5b91939092909160208101903564010000000081111561011b57600080fd5b82018360208201111561012d57600080fd5b8035906020019184602083028401116401000000008311171561014f57600080fd5b509092509050610240565b005b61015a6102ec565b61016c6103aa565b604080516001600160a01b039092168252519081900360200190f35b61015a6004803603604081101561019e57600080fd5b506001600160a01b03813581169160200135166103b9565b61016c600480360360208110156101cc57600080fd5b50356001600160a01b0316610567565b61015a600480360360408110156101f257600080fd5b506001600160a01b03813581169160200135166105af565b61016c61060d565b61015a6004803603602081101561022857600080fd5b50356001600160a01b0316610631565b61016c610745565b333214610290576040805162461bcd60e51b815260206004820152601960248201527842616d626f6f4d616b65723a206d7573742075736520454f4160381b604482015290519081900360640190fd5b8260005b818110156102e4576102dc8686838181106102ab57fe5b905060200201356001600160a01b03168585848181106102c757fe5b905060200201356001600160a01b0316610769565b600101610294565b505050505050565b6102f4610a67565b6001600160a01b03166103056103aa565b6001600160a01b031614610360576040805162461bcd60e51b815260206004820181905260248201527f4f776e61626c653a2063616c6c6572206973206e6f7420746865206f776e6572604482015290519081900360640190fd5b600080546040516001600160a01b03909116907f8be0079c531659141344cd1fd0a4f28419497f9722a3daafe3b4186f6b6457e0908390a3600080546001600160a01b0319169055565b6000546001600160a01b031690565b6103c1610a67565b6001600160a01b03166103d26103aa565b6001600160a01b03161461042d576040805162461bcd60e51b815260206004820181905260248201527f4f776e61626c653a2063616c6c6572206973206e6f7420746865206f776e6572604482015290519081900360640190fd5b7f00000000000000000000000000000000000000000000000000000000000000006001600160a01b0316826001600160a01b0316141580156104a157507f00000000000000000000000000000000000000000000000000000000000000006001600160a01b0316826001600160a01b031614155b80156104bf5750806001600160a01b0316826001600160a01b031614155b610510576040805162461bcd60e51b815260206004820152601b60248201527f42616d626f6f4d616b65723a20496e76616c6964206272696467650000000000604482015290519081900360640190fd5b6001600160a01b0382811660008181526001602052604080822080546001600160a01b0319169486169485179055517f2e103aa707acc565f9a1547341914802b2bfe977fd79c595209f248ae4b006139190a35050565b6001600160a01b0380821660009081526001602052604090205416806105aa57507f00000000000000000000000000000000000000000000000000000000000000005b919050565b3332146105ff576040805162461bcd60e51b815260206004820152601960248201527842616d626f6f4d616b65723a206d7573742075736520454f4160381b604482015290519081900360640190fd5b6106098282610769565b5050565b7f000000000000000000000000000000000000000000000000000000000000000081565b610639610a67565b6001600160a01b031661064a6103aa565b6001600160a01b0316146106a5576040805162461bcd60e51b815260206004820181905260248201527f4f776e61626c653a2063616c6c6572206973206e6f7420746865206f776e6572604482015290519081900360640190fd5b6001600160a01b0381166106ea5760405162461bcd60e51b815260040180806020018281038252602681526020018061177f6026913960400191505060405180910390fd5b600080546040516001600160a01b03808516939216917f8be0079c531659141344cd1fd0a4f28419497f9722a3daafe3b4186f6b6457e091a3600080546001600160a01b0319166001600160a01b0392909216919091179055565b7f000000000000000000000000000000000000000000000000000000000000000081565b60007f00000000000000000000000000000000000000000000000000000000000000006001600160a01b031663e6a4390584846040518363ffffffff1660e01b815260040180836001600160a01b03168152602001826001600160a01b031681526020019250505060206040518083038186803b1580156107e957600080fd5b505afa1580156107fd573d6000803e3d6000fd5b505050506040513d602081101561081357600080fd5b505190506001600160a01b038116610872576040805162461bcd60e51b815260206004820152601960248201527f42616d626f6f4d616b65723a20496e76616c6964207061697200000000000000604482015290519081900360640190fd5b61090081826001600160a01b03166370a08231306040518263ffffffff1660e01b815260040180826001600160a01b0316815260200191505060206040518083038186803b1580156108c357600080fd5b505afa1580156108d7573d6000803e3d6000fd5b505050506040513d60208110156108ed57600080fd5b50516001600160a01b0384169190610a6b565b600080826001600160a01b03166389afcb44306040518263ffffffff1660e01b815260040180826001600160a01b031681526020019150506040805180830381600087803b15801561095157600080fd5b505af1158015610965573d6000803e3d6000fd5b505050506040513d604081101561097b57600080fd5b50805160209182015160408051630dfe168160e01b815290519295509093506001600160a01b03861692630dfe168192600480840193829003018186803b1580156109c557600080fd5b505afa1580156109d9573d6000803e3d6000fd5b505050506040513d60208110156109ef57600080fd5b50516001600160a01b03868116911614610a0557905b6001600160a01b03808516908616337fd06b1d7ed79b664d17472c6f6997b929f1abe463ccccb4e5b6a0038f2f730c158585610a438b8b8484610ac2565b60408051938452602084019290925282820152519081900360600190a45050505050565b3390565b604080516001600160a01b038416602482015260448082018490528251808303909101815260649091019091526020810180516001600160e01b031663a9059cbb60e01b179052610abd908490610f33565b505050565b6000836001600160a01b0316856001600160a01b03161415610c1f576000610aea8484610fe4565b90507f00000000000000000000000000000000000000000000000000000000000000006001600160a01b0316866001600160a01b03161415610b8257610b7a6001600160a01b037f0000000000000000000000000000000000000000000000000000000000000000167f000000000000000000000000000000000000000000000000000000000000000083610a6b565b809150610c19565b7f00000000000000000000000000000000000000000000000000000000000000006001600160a01b0316866001600160a01b03161415610bed57610be67f000000000000000000000000000000000000000000000000000000000000000082611047565b9150610c19565b6000610bf887610567565b9050610c068782843061109c565b9150610c158182846000610ac2565b9250505b50610f2b565b7f00000000000000000000000000000000000000000000000000000000000000006001600160a01b0316856001600160a01b03161415610cc857610cad6001600160a01b037f0000000000000000000000000000000000000000000000000000000000000000167f000000000000000000000000000000000000000000000000000000000000000085610a6b565b610cc183610cbb8685611047565b90610fe4565b9050610f2b565b7f00000000000000000000000000000000000000000000000000000000000000006001600160a01b0316846001600160a01b03161415610d6457610d566001600160a01b037f0000000000000000000000000000000000000000000000000000000000000000167f000000000000000000000000000000000000000000000000000000000000000084610a6b565b610cc182610cbb8786611047565b7f00000000000000000000000000000000000000000000000000000000000000006001600160a01b0316856001600160a01b03161415610df757610cc17f0000000000000000000000000000000000000000000000000000000000000000610df285610cbb887f0000000000000000000000000000000000000000000000000000000000000000883061109c565b611047565b7f00000000000000000000000000000000000000000000000000000000000000006001600160a01b0316846001600160a01b03161415610e8557610cc17f0000000000000000000000000000000000000000000000000000000000000000610df284610cbb897f0000000000000000000000000000000000000000000000000000000000000000893061109c565b6000610e9086610567565b90506000610e9d86610567565b9050856001600160a01b0316826001600160a01b03161415610ed757610ed08287610eca8a868a3061109c565b87610ac2565b9250610f28565b866001600160a01b0316816001600160a01b03161415610f0857610ed0878287610f038a868a3061109c565b610ac2565b610f258282610f198a868a3061109c565b610f038a868a3061109c565b92505b50505b949350505050565b6060610f88826040518060400160405280602081526020017f5361666545524332303a206c6f772d6c6576656c2063616c6c206661696c6564815250856001600160a01b031661151b9092919063ffffffff16565b805190915015610abd57808060200190516020811015610fa757600080fd5b5051610abd5760405162461bcd60e51b815260040180806020018281038252602a8152602001806117ec602a913960400191505060405180910390fd5b60008282018381101561103e576040805162461bcd60e51b815260206004820152601b60248201527f536166654d6174683a206164646974696f6e206f766572666c6f770000000000604482015290519081900360640190fd5b90505b92915050565b6000611095837f0000000000000000000000000000000000000000000000000000000000000000847f000000000000000000000000000000000000000000000000000000000000000061109c565b9392505050565b6000807f00000000000000000000000000000000000000000000000000000000000000006001600160a01b031663e6a4390587876040518363ffffffff1660e01b815260040180836001600160a01b03168152602001826001600160a01b031681526020019250505060206040518083038186803b15801561111d57600080fd5b505afa158015611131573d6000803e3d6000fd5b505050506040513d602081101561114757600080fd5b505190506001600160a01b0381166111a6576040805162461bcd60e51b815260206004820152601b60248201527f42616d626f6f4d616b65723a2043616e6e6f7420636f6e766572740000000000604482015290519081900360640190fd5b600080826001600160a01b0316630902f1ac6040518163ffffffff1660e01b815260040160606040518083038186803b1580156111e257600080fd5b505afa1580156111f6573d6000803e3d6000fd5b505050506040513d606081101561120c57600080fd5b5080516020909101516dffffffffffffffffffffffffffff9182169350169050600061123a876103e561152a565b9050836001600160a01b0316630dfe16816040518163ffffffff1660e01b815260040160206040518083038186803b15801561127557600080fd5b505afa158015611289573d6000803e3d6000fd5b505050506040513d602081101561129f57600080fd5b50516001600160a01b038a8116911614156113e6576112c481610cbb856103e861152a565b6112da836112d48a6103e561152a565b9061152a565b816112e157fe5b0494506112f86001600160a01b038a168589610a6b565b604080516000808252602082019283905263022c0d9f60e01b835260248201818152604483018990526001600160a01b038a81166064850152608060848501908152845160a48601819052918a169563022c0d9f958c948e9491939092909160c4850191908083838b5b8381101561137a578181015183820152602001611362565b50505050905090810190601f1680156113a75780820380516001836020036101000a031916815260200191505b5095505050505050600060405180830381600087803b1580156113c957600080fd5b505af11580156113dd573d6000803e3d6000fd5b5050505061150f565b6113f681610cbb846103e861152a565b611406846112d48a6103e561152a565b8161140d57fe5b0494506114246001600160a01b038a168589610a6b565b604080516000808252602082019283905263022c0d9f60e01b835260248201888152604483018290526001600160a01b038a81166064850152608060848501908152845160a48601819052918a169563022c0d9f958c95948e9491939092909160c4850191908083838a5b838110156114a757818101518382015260200161148f565b50505050905090810190601f1680156114d45780820380516001836020036101000a031916815260200191505b5095505050505050600060405180830381600087803b1580156114f657600080fd5b505af115801561150a573d6000803e3d6000fd5b505050505b50505050949350505050565b6060610f2b8484600085611583565b60008261153957506000611041565b8282028284828161154657fe5b041461103e5760405162461bcd60e51b81526004018080602001828103825260218152602001806117cb6021913960400191505060405180910390fd5b6060824710156115c45760405162461bcd60e51b81526004018080602001828103825260268152602001806117a56026913960400191505060405180910390fd5b6115cd856116d4565b61161e576040805162461bcd60e51b815260206004820152601d60248201527f416464726573733a2063616c6c20746f206e6f6e2d636f6e7472616374000000604482015290519081900360640190fd5b60006060866001600160a01b031685876040518082805190602001908083835b6020831061165d5780518252601f19909201916020918201910161163e565b6001836020036101000a03801982511681845116808217855250505050505090500191505060006040518083038185875af1925050503d80600081146116bf576040519150601f19603f3d011682016040523d82523d6000602084013e6116c4565b606091505b5091509150610f258282866116da565b3b151590565b606083156116e9575081611095565b8251156116f95782518084602001fd5b8160405162461bcd60e51b81526004018080602001828103825283818151815260200191508051906020019080838360005b8381101561174357818101518382015260200161172b565b50505050905090810190601f1680156117705780820380516001836020036101000a031916815260200191505b509250505060405180910390fdfe4f776e61626c653a206e6577206f776e657220697320746865207a65726f2061646472657373416464726573733a20696e73756666696369656e742062616c616e636520666f722063616c6c536166654d6174683a206d756c7469706c69636174696f6e206f766572666c6f775361666545524332303a204552433230206f7065726174696f6e20646964206e6f742073756363656564a264697066735822122002a55cb31ce225abc01b29be9ffe9ac420a303bec48ef13639d03e8bd7b9a04264736f6c634300060c0033",
  "immutableReferences": {
    "148": [
      {
        "length": 32,
        "start": 1551
      },
      {
        "length": 32,
        "start": 1901
      },
      {
        "length": 32,
        "start": 4257
      }
    ],
    "150": [
      {
        "length": 32,
        "start": 1863
      },
      {
        "length": 32,
        "start": 2901
      },
      {
        "length": 32,
        "start": 3208
      },
      {
        "length": 32,
        "start": 3377
      },
      {
        "length": 32,
        "start": 4209
      }
    ],
    "152": [
      {
        "length": 32,
        "start": 1071
      },
      {
        "length": 32,
        "start": 2798
      },
      {
        "length": 32,
        "start": 2867
      },
      {
        "length": 32,
        "start": 3105
      },
      {
        "length": 32,
        "start": 3174
      },
      {
        "length": 32,
        "start": 3274
      },
      {
        "length": 32,
        "start": 3343
      },
      {
        "length": 32,
        "start": 4175
      }
    ],
    "154": [
      {
        "length": 32,
        "start": 1132
      },
      {
        "length": 32,
        "start": 1418
      },
      {
        "length": 32,
        "start": 2948
      },
      {
        "length": 32,
        "start": 3009
      },
      {
        "length": 32,
        "start": 3430
      },
      {
        "length": 32,
        "start": 3491
      },
      {
        "length": 32,
        "start": 3532
      },
      {
        "length": 32,
        "start": 3577
      },
      {
        "length": 32,
        "start": 3638
      },
      {
        "length": 32,
        "start": 3679
      }
    ]
  },
  "source": "// SPDX-License-Identifier: MIT\n\n// P1 - P3: OK\npragma solidity 0.6.12;\n\nimport \"@openzeppelin/contracts/math/SafeMath.sol\";\nimport \"@openzeppelin/contracts/token/ERC20/SafeERC20.sol\";\nimport \"@openzeppelin/contracts/access/Ownable.sol\";\n\nimport \"./uniswapv2/interfaces/IUniswapV2ERC20.sol\";\nimport \"./uniswapv2/interfaces/IUniswapV2Pair.sol\";\nimport \"./uniswapv2/interfaces/IUniswapV2Factory.sol\";\n\n\n\n// BambooMaker is MasterChef's left hand and kinda a wizard. He can cook up Bamboo from pretty much anything!\n// This contract handles \"serving up\" rewards for xBamboo holders by trading tokens collected from fees for Bamboo.\n\n// T1 - T4: OK\ncontract BambooMaker is Ownable {\n    using SafeMath for uint256;\n    using SafeERC20 for IERC20;\n\n    // V1 - V5: OK\n    IUniswapV2Factory public immutable factory;\n    //0xC0AEe478e3658e2610c5F7A4A2E1777cE9e4f2Ac\n    // V1 - V5: OK\n    address public immutable bar;\n    //0x8798249c2E607446EfB7Ad49eC89dD1865Ff4272\n    // V1 - V5: OK\n    address private immutable bamboo;\n    //0x6B3595068778DD592e39A122f4f5a5cF09C90fE2\n    // V1 - V5: OK\n    address private immutable weth;\n    //0xC02aaA39b223FE8D0A0e5C4F27eAD9083C756Cc2\n\n    // V1 - V5: OK\n    mapping(address => address) internal _bridges;\n\n    // E1: OK\n    event LogBridgeSet(address indexed token, address indexed bridge);\n    // E1: OK\n    event LogConvert(\n        address indexed server,\n        address indexed token0,\n        address indexed token1,\n        uint256 amount0,\n        uint256 amount1,\n        uint256 amountSUSHI\n    );\n\n    constructor(\n        address _factory,\n        address _bar,\n        address _bamboo,\n        address _weth\n    ) public {\n        factory = IUniswapV2Factory(_factory);\n        bar = _bar;\n        bamboo = _bamboo;\n        weth = _weth;\n    }\n\n    // F1 - F10: OK\n    // C1 - C24: OK\n    function bridgeFor(address token) public view returns (address bridge) {\n        bridge = _bridges[token];\n        if (bridge == address(0)) {\n            bridge = weth;\n        }\n    }\n\n    // F1 - F10: OK\n    // C1 - C24: OK\n    function setBridge(address token, address bridge) external onlyOwner {\n        // Checks\n        require(\n            token != bamboo && token != weth && token != bridge,\n            \"BambooMaker: Invalid bridge\"\n        );\n\n        // Effects\n        _bridges[token] = bridge;\n        emit LogBridgeSet(token, bridge);\n    }\n\n    // M1 - M5: OK\n    // C1 - C24: OK\n    // C6: It's not a fool proof solution, but it prevents flash loans, so here it's ok to use tx.origin\n    modifier onlyEOA() {\n        // Try to make flash-loan exploit harder to do by only allowing externally owned addresses.\n        require(msg.sender == tx.origin, \"BambooMaker: must use EOA\");\n        _;\n    }\n\n    // F1 - F10: OK\n    // F3: _convert is separate to save gas by only checking the 'onlyEOA' modifier once in case of convertMultiple\n    // F6: There is an exploit to add lots of SUSHI to the bar, run convert, then remove the SUSHI again.\n    //     As the size of the BambooBar has grown, this requires large amounts of funds and isn't super profitable anymore\n    //     The onlyEOA modifier prevents this being done with a flash loan.\n    // C1 - C24: OK\n    function convert(address token0, address token1) external onlyEOA() {\n        _convert(token0, token1);\n    }\n\n    // F1 - F10: OK, see convert\n    // C1 - C24: OK\n    // C3: Loop is under control of the caller\n    function convertMultiple(\n        address[] calldata token0,\n        address[] calldata token1\n    ) external onlyEOA() {\n        // TODO: This can be optimized a fair bit, but this is safer and simpler for now\n        uint256 len = token0.length;\n        for (uint256 i = 0; i < len; i++) {\n            _convert(token0[i], token1[i]);\n        }\n    }\n\n    // F1 - F10: OK\n    // C1- C24: OK\n    function _convert(address token0, address token1) internal {\n        // Interactions\n        // S1 - S4: OK\n        IUniswapV2Pair pair = IUniswapV2Pair(factory.getPair(token0, token1));\n        require(address(pair) != address(0), \"BambooMaker: Invalid pair\");\n        // balanceOf: S1 - S4: OK\n        // transfer: X1 - X5: OK\n        IERC20(address(pair)).safeTransfer(\n            address(pair),\n            pair.balanceOf(address(this))\n        );\n        // X1 - X5: OK\n        (uint256 amount0, uint256 amount1) = pair.burn(address(this));\n        if (token0 != pair.token0()) {\n            (amount0, amount1) = (amount1, amount0);\n        }\n        emit LogConvert(\n            msg.sender,\n            token0,\n            token1,\n            amount0,\n            amount1,\n            _convertStep(token0, token1, amount0, amount1)\n        );\n    }\n\n    // F1 - F10: OK\n    // C1 - C24: OK\n    // All safeTransfer, _swap, _toSUSHI, _convertStep: X1 - X5: OK\n    function _convertStep(\n        address token0,\n        address token1,\n        uint256 amount0,\n        uint256 amount1\n    ) internal returns (uint256 bambooOut) {\n        // Interactions\n        if (token0 == token1) {\n            uint256 amount = amount0.add(amount1);\n            if (token0 == bamboo) {\n                IERC20(bamboo).safeTransfer(bar, amount);\n                bambooOut = amount;\n            } else if (token0 == weth) {\n                bambooOut = _toSUSHI(weth, amount);\n            } else {\n                address bridge = bridgeFor(token0);\n                amount = _swap(token0, bridge, amount, address(this));\n                bambooOut = _convertStep(bridge, bridge, amount, 0);\n            }\n        } else if (token0 == bamboo) {\n            // eg. SUSHI - ETH\n            IERC20(bamboo).safeTransfer(bar, amount0);\n            bambooOut = _toSUSHI(token1, amount1).add(amount0);\n        } else if (token1 == bamboo) {\n            // eg. USDT - SUSHI\n            IERC20(bamboo).safeTransfer(bar, amount1);\n            bambooOut = _toSUSHI(token0, amount0).add(amount1);\n        } else if (token0 == weth) {\n            // eg. ETH - USDC\n            bambooOut = _toSUSHI(\n                weth,\n                _swap(token1, weth, amount1, address(this)).add(amount0)\n            );\n        } else if (token1 == weth) {\n            // eg. USDT - ETH\n            bambooOut = _toSUSHI(\n                weth,\n                _swap(token0, weth, amount0, address(this)).add(amount1)\n            );\n        } else {\n            // eg. MIC - USDT\n            address bridge0 = bridgeFor(token0);\n            address bridge1 = bridgeFor(token1);\n            if (bridge0 == token1) {\n                // eg. MIC - USDT - and bridgeFor(MIC) = USDT\n                bambooOut = _convertStep(\n                    bridge0,\n                    token1,\n                    _swap(token0, bridge0, amount0, address(this)),\n                    amount1\n                );\n            } else if (bridge1 == token0) {\n                // eg. WBTC - DSD - and bridgeFor(DSD) = WBTC\n                bambooOut = _convertStep(\n                    token0,\n                    bridge1,\n                    amount0,\n                    _swap(token1, bridge1, amount1, address(this))\n                );\n            } else {\n                bambooOut = _convertStep(\n                    bridge0,\n                    bridge1, // eg. USDT - DSD - and bridgeFor(DSD) = WBTC\n                    _swap(token0, bridge0, amount0, address(this)),\n                    _swap(token1, bridge1, amount1, address(this))\n                );\n            }\n        }\n    }\n\n    // F1 - F10: OK\n    // C1 - C24: OK\n    // All safeTransfer, swap: X1 - X5: OK\n    function _swap(\n        address fromToken,\n        address toToken,\n        uint256 amountIn,\n        address to\n    ) internal returns (uint256 amountOut) {\n        // Checks\n        // X1 - X5: OK\n        IUniswapV2Pair pair =\n            IUniswapV2Pair(factory.getPair(fromToken, toToken));\n        require(address(pair) != address(0), \"BambooMaker: Cannot convert\");\n\n        // Interactions\n        // X1 - X5: OK\n        (uint256 reserve0, uint256 reserve1, ) = pair.getReserves();\n        uint256 amountInWithFee = amountIn.mul(997);\n        if (fromToken == pair.token0()) {\n            amountOut =\n                amountIn.mul(997).mul(reserve1) /\n                reserve0.mul(1000).add(amountInWithFee);\n            IERC20(fromToken).safeTransfer(address(pair), amountIn);\n            pair.swap(0, amountOut, to, new bytes(0));\n            // TODO: Add maximum slippage?\n        } else {\n            amountOut =\n                amountIn.mul(997).mul(reserve0) /\n                reserve1.mul(1000).add(amountInWithFee);\n            IERC20(fromToken).safeTransfer(address(pair), amountIn);\n            pair.swap(amountOut, 0, to, new bytes(0));\n            // TODO: Add maximum slippage?\n        }\n    }\n\n    // F1 - F10: OK\n    // C1 - C24: OK\n    function _toSUSHI(address token, uint256 amountIn)\n        internal\n        returns (uint256 amountOut)\n    {\n        // X1 - X5: OK\n        amountOut = _swap(token, bamboo, amountIn, bar);\n    }\n}\n",
  "sourcePath": "/Users/josephliu/workspace/pandaswap-contracts/contracts/BambooMaker.sol",
  "compiler": {
    "name": "solc",
    "version": "0.6.12+commit.27d51765.Emscripten.clang"
  },
  "schemaVersion": "3.3.4",
  "updatedAt": "2021-04-03T04:46:17.758Z",
  "devdoc": {
    "kind": "dev",
    "methods": {
      "owner()": {
        "details": "Returns the address of the current owner."
      },
      "renounceOwnership()": {
        "details": "Leaves the contract without owner. It will not be possible to call `onlyOwner` functions anymore. Can only be called by the current owner. NOTE: Renouncing ownership will leave the contract without an owner, thereby removing any functionality that is only available to the owner."
      },
      "transferOwnership(address)": {
        "details": "Transfers ownership of the contract to a new account (`newOwner`). Can only be called by the current owner."
      }
    },
    "version": 1
  },
  "userdoc": {
    "kind": "user",
    "methods": {},
    "version": 1
  }
}