{
  "contractName": "MasterChef",
  "abi": [
    {
      "inputs": [
        {
          "internalType": "contract BambooToken",
          "name": "_bamboo",
          "type": "address"
        },
        {
          "internalType": "address",
          "name": "_devaddr1",
          "type": "address"
        },
        {
          "internalType": "address",
          "name": "_devaddr2",
          "type": "address"
        },
        {
          "internalType": "address",
          "name": "_devaddr3",
          "type": "address"
        },
        {
          "internalType": "address",
          "name": "_devaddr4",
          "type": "address"
        },
        {
          "internalType": "address",
          "name": "_devaddr5",
          "type": "address"
        },
        {
          "internalType": "address",
          "name": "_devaddr6",
          "type": "address"
        },
        {
          "internalType": "uint256",
          "name": "_bambooPerBlock",
          "type": "uint256"
        },
        {
          "internalType": "uint256",
          "name": "_startBlock",
          "type": "uint256"
        },
        {
          "internalType": "uint256",
          "name": "_bonusEndBlock",
          "type": "uint256"
        }
      ],
      "stateMutability": "nonpayable",
      "type": "constructor"
    },
    {
      "anonymous": false,
      "inputs": [
        {
          "indexed": true,
          "internalType": "address",
          "name": "user",
          "type": "address"
        },
        {
          "indexed": true,
          "internalType": "uint256",
          "name": "pid",
          "type": "uint256"
        },
        {
          "indexed": false,
          "internalType": "uint256",
          "name": "amount",
          "type": "uint256"
        }
      ],
      "name": "Deposit",
      "type": "event"
    },
    {
      "anonymous": false,
      "inputs": [
        {
          "indexed": true,
          "internalType": "address",
          "name": "user",
          "type": "address"
        },
        {
          "indexed": true,
          "internalType": "uint256",
          "name": "pid",
          "type": "uint256"
        },
        {
          "indexed": false,
          "internalType": "uint256",
          "name": "amount",
          "type": "uint256"
        }
      ],
      "name": "EmergencyWithdraw",
      "type": "event"
    },
    {
      "anonymous": false,
      "inputs": [
        {
          "indexed": true,
          "internalType": "address",
          "name": "previousOwner",
          "type": "address"
        },
        {
          "indexed": true,
          "internalType": "address",
          "name": "newOwner",
          "type": "address"
        }
      ],
      "name": "OwnershipTransferred",
      "type": "event"
    },
    {
      "anonymous": false,
      "inputs": [
        {
          "indexed": true,
          "internalType": "address",
          "name": "user",
          "type": "address"
        },
        {
          "indexed": true,
          "internalType": "uint256",
          "name": "pid",
          "type": "uint256"
        },
        {
          "indexed": false,
          "internalType": "uint256",
          "name": "amount",
          "type": "uint256"
        }
      ],
      "name": "Withdraw",
      "type": "event"
    },
    {
      "inputs": [],
      "name": "BONUS_MULTIPLIER",
      "outputs": [
        {
          "internalType": "uint256",
          "name": "",
          "type": "uint256"
        }
      ],
      "stateMutability": "view",
      "type": "function"
    },
    {
      "inputs": [],
      "name": "bamboo",
      "outputs": [
        {
          "internalType": "contract BambooToken",
          "name": "",
          "type": "address"
        }
      ],
      "stateMutability": "view",
      "type": "function"
    },
    {
      "inputs": [],
      "name": "bambooPerBlock",
      "outputs": [
        {
          "internalType": "uint256",
          "name": "",
          "type": "uint256"
        }
      ],
      "stateMutability": "view",
      "type": "function"
    },
    {
      "inputs": [],
      "name": "bonusEndBlock",
      "outputs": [
        {
          "internalType": "uint256",
          "name": "",
          "type": "uint256"
        }
      ],
      "stateMutability": "view",
      "type": "function"
    },
    {
      "inputs": [],
      "name": "devaddr1",
      "outputs": [
        {
          "internalType": "address",
          "name": "",
          "type": "address"
        }
      ],
      "stateMutability": "view",
      "type": "function"
    },
    {
      "inputs": [],
      "name": "devaddr2",
      "outputs": [
        {
          "internalType": "address",
          "name": "",
          "type": "address"
        }
      ],
      "stateMutability": "view",
      "type": "function"
    },
    {
      "inputs": [],
      "name": "devaddr3",
      "outputs": [
        {
          "internalType": "address",
          "name": "",
          "type": "address"
        }
      ],
      "stateMutability": "view",
      "type": "function"
    },
    {
      "inputs": [],
      "name": "devaddr4",
      "outputs": [
        {
          "internalType": "address",
          "name": "",
          "type": "address"
        }
      ],
      "stateMutability": "view",
      "type": "function"
    },
    {
      "inputs": [],
      "name": "devaddr5",
      "outputs": [
        {
          "internalType": "address",
          "name": "",
          "type": "address"
        }
      ],
      "stateMutability": "view",
      "type": "function"
    },
    {
      "inputs": [],
      "name": "devaddr6",
      "outputs": [
        {
          "internalType": "address",
          "name": "",
          "type": "address"
        }
      ],
      "stateMutability": "view",
      "type": "function"
    },
    {
      "inputs": [],
      "name": "migrator",
      "outputs": [
        {
          "internalType": "contract IMigratorChef",
          "name": "",
          "type": "address"
        }
      ],
      "stateMutability": "view",
      "type": "function"
    },
    {
      "inputs": [],
      "name": "owner",
      "outputs": [
        {
          "internalType": "address",
          "name": "",
          "type": "address"
        }
      ],
      "stateMutability": "view",
      "type": "function"
    },
    {
      "inputs": [
        {
          "internalType": "uint256",
          "name": "",
          "type": "uint256"
        }
      ],
      "name": "poolInfo",
      "outputs": [
        {
          "internalType": "contract IERC20",
          "name": "lpToken",
          "type": "address"
        },
        {
          "internalType": "uint256",
          "name": "allocPoint",
          "type": "uint256"
        },
        {
          "internalType": "uint256",
          "name": "lastRewardBlock",
          "type": "uint256"
        },
        {
          "internalType": "uint256",
          "name": "accBambooPerShare",
          "type": "uint256"
        }
      ],
      "stateMutability": "view",
      "type": "function"
    },
    {
      "inputs": [],
      "name": "renounceOwnership",
      "outputs": [],
      "stateMutability": "nonpayable",
      "type": "function"
    },
    {
      "inputs": [],
      "name": "startBlock",
      "outputs": [
        {
          "internalType": "uint256",
          "name": "",
          "type": "uint256"
        }
      ],
      "stateMutability": "view",
      "type": "function"
    },
    {
      "inputs": [],
      "name": "totalAllocPoint",
      "outputs": [
        {
          "internalType": "uint256",
          "name": "",
          "type": "uint256"
        }
      ],
      "stateMutability": "view",
      "type": "function"
    },
    {
      "inputs": [
        {
          "internalType": "address",
          "name": "newOwner",
          "type": "address"
        }
      ],
      "name": "transferOwnership",
      "outputs": [],
      "stateMutability": "nonpayable",
      "type": "function"
    },
    {
      "inputs": [
        {
          "internalType": "uint256",
          "name": "",
          "type": "uint256"
        },
        {
          "internalType": "address",
          "name": "",
          "type": "address"
        }
      ],
      "name": "userInfo",
      "outputs": [
        {
          "internalType": "uint256",
          "name": "amount",
          "type": "uint256"
        },
        {
          "internalType": "uint256",
          "name": "rewardDebt",
          "type": "uint256"
        }
      ],
      "stateMutability": "view",
      "type": "function"
    },
    {
      "inputs": [],
      "name": "poolLength",
      "outputs": [
        {
          "internalType": "uint256",
          "name": "",
          "type": "uint256"
        }
      ],
      "stateMutability": "view",
      "type": "function"
    },
    {
      "inputs": [
        {
          "internalType": "uint256",
          "name": "_allocPoint",
          "type": "uint256"
        },
        {
          "internalType": "contract IERC20",
          "name": "_lpToken",
          "type": "address"
        },
        {
          "internalType": "bool",
          "name": "_withUpdate",
          "type": "bool"
        }
      ],
      "name": "add",
      "outputs": [],
      "stateMutability": "nonpayable",
      "type": "function"
    },
    {
      "inputs": [
        {
          "internalType": "uint256",
          "name": "_pid",
          "type": "uint256"
        },
        {
          "internalType": "uint256",
          "name": "_allocPoint",
          "type": "uint256"
        },
        {
          "internalType": "bool",
          "name": "_withUpdate",
          "type": "bool"
        }
      ],
      "name": "set",
      "outputs": [],
      "stateMutability": "nonpayable",
      "type": "function"
    },
    {
      "inputs": [
        {
          "internalType": "contract IMigratorChef",
          "name": "_migrator",
          "type": "address"
        }
      ],
      "name": "setMigrator",
      "outputs": [],
      "stateMutability": "nonpayable",
      "type": "function"
    },
    {
      "inputs": [
        {
          "internalType": "uint256",
          "name": "_pid",
          "type": "uint256"
        }
      ],
      "name": "migrate",
      "outputs": [],
      "stateMutability": "nonpayable",
      "type": "function"
    },
    {
      "inputs": [
        {
          "internalType": "uint256",
          "name": "_from",
          "type": "uint256"
        },
        {
          "internalType": "uint256",
          "name": "_to",
          "type": "uint256"
        }
      ],
      "name": "getMultiplier",
      "outputs": [
        {
          "internalType": "uint256",
          "name": "",
          "type": "uint256"
        }
      ],
      "stateMutability": "view",
      "type": "function"
    },
    {
      "inputs": [
        {
          "internalType": "uint256",
          "name": "_pid",
          "type": "uint256"
        },
        {
          "internalType": "address",
          "name": "_user",
          "type": "address"
        }
      ],
      "name": "pendingBamboo",
      "outputs": [
        {
          "internalType": "uint256",
          "name": "",
          "type": "uint256"
        }
      ],
      "stateMutability": "view",
      "type": "function"
    },
    {
      "inputs": [],
      "name": "massUpdatePools",
      "outputs": [],
      "stateMutability": "nonpayable",
      "type": "function"
    },
    {
      "inputs": [
        {
          "internalType": "uint256",
          "name": "_pid",
          "type": "uint256"
        }
      ],
      "name": "updatePool",
      "outputs": [],
      "stateMutability": "nonpayable",
      "type": "function"
    },
    {
      "inputs": [
        {
          "internalType": "uint256",
          "name": "_pid",
          "type": "uint256"
        },
        {
          "internalType": "uint256",
          "name": "_amount",
          "type": "uint256"
        }
      ],
      "name": "deposit",
      "outputs": [],
      "stateMutability": "nonpayable",
      "type": "function"
    },
    {
      "inputs": [
        {
          "internalType": "uint256",
          "name": "_pid",
          "type": "uint256"
        },
        {
          "internalType": "uint256",
          "name": "_amount",
          "type": "uint256"
        }
      ],
      "name": "withdraw",
      "outputs": [],
      "stateMutability": "nonpayable",
      "type": "function"
    },
    {
      "inputs": [
        {
          "internalType": "uint256",
          "name": "_pid",
          "type": "uint256"
        }
      ],
      "name": "emergencyWithdraw",
      "outputs": [],
      "stateMutability": "nonpayable",
      "type": "function"
    },
    {
      "inputs": [
        {
          "internalType": "address",
          "name": "_devaddr1",
          "type": "address"
        }
      ],
      "name": "dev1",
      "outputs": [],
      "stateMutability": "nonpayable",
      "type": "function"
    },
    {
      "inputs": [
        {
          "internalType": "address",
          "name": "_devaddr2",
          "type": "address"
        }
      ],
      "name": "dev2",
      "outputs": [],
      "stateMutability": "nonpayable",
      "type": "function"
    },
    {
      "inputs": [
        {
          "internalType": "address",
          "name": "_devaddr3",
          "type": "address"
        }
      ],
      "name": "dev3",
      "outputs": [],
      "stateMutability": "nonpayable",
      "type": "function"
    },
    {
      "inputs": [
        {
          "internalType": "address",
          "name": "_devaddr4",
          "type": "address"
        }
      ],
      "name": "dev4",
      "outputs": [],
      "stateMutability": "nonpayable",
      "type": "function"
    },
    {
      "inputs": [
        {
          "internalType": "address",
          "name": "_devaddr5",
          "type": "address"
        }
      ],
      "name": "dev5",
      "outputs": [],
      "stateMutability": "nonpayable",
      "type": "function"
    },
    {
      "inputs": [
        {
          "internalType": "address",
          "name": "_devaddr6",
          "type": "address"
        }
      ],
      "name": "dev6",
      "outputs": [],
      "stateMutability": "nonpayable",
      "type": "function"
    }
  ],
  "bytecode": "0x60806040526000600d5534801561001557600080fd5b50604051612475380380612475833981810160405261014081101561003957600080fd5b508051602082015160408301516060840151608085015160a086015160c087015160e088015161010089015161012090990151979896979596949593949293919290916000610086610163565b600080546001600160a01b0319166001600160a01b0383169081178255604051929350917f8be0079c531659141344cd1fd0a4f28419497f9722a3daafe3b4186f6b6457e0908290a350600180546001600160a01b03199081166001600160a01b039c8d16179091556002805482169a8c169a909a17909955600380548a16988b1698909817909755600480548916968a1696909617909555600580548816948916949094179093556006805487169288169290921790915560078054909516951694909417909255600992909255600891909155600e55610167565b3390565b6122ff806101766000396000f3fe608060405234801561001057600080fd5b506004361061021c5760003560e01c80635e671c0f1161012557806393f1a40b116100ad578063d08c252b1161007c578063d08c252b14610543578063de86b67714610569578063e2bbb15814610595578063f19987fc146105b8578063f2fde38b146105c05761021c565b806393f1a40b146104c85780639d21d4b01461050d578063bf4ef92214610515578063ce7410bd1461053b5761021c565b8063715018a6116100f4578063715018a6146104855780637cd07e471461048d5780638aa28550146104955780638da5cb5b1461049d5780638dbb1e3a146104a55761021c565b80635e671c0f14610424578063630b5ba11461042c57806364482f79146104345780636fd216e61461045f5761021c565b8063441a3e70116101a857806348cd4cb11161017757806348cd4cb1146103b45780634979c1f1146103bc5780634b54555f146103c457806351eb05a6146103ea5780635312ea8e146104075761021c565b8063441a3e7014610346578063454b060814610369578063458aae5c146103865780634623eff0146103ac5761021c565b806317caf6f1116101ef57806317caf6f1146102b45780631aed6553146102bc5780631eaaa045146102c457806323cf3118146102fa57806337f13226146103205761021c565b8063081e3eda146102215780630bb07ce21461023b5780631526fe271461025f57806316c14382146102ac575b600080fd5b6102296105e6565b60408051918252519081900360200190f35b6102436105ec565b604080516001600160a01b039092168252519081900360200190f35b61027c6004803603602081101561027557600080fd5b50356105fb565b604080516001600160a01b0390951685526020850193909352838301919091526060830152519081900360800190f35b61024361063c565b61022961064b565b610229610651565b6102f8600480360360608110156102da57600080fd5b508035906001600160a01b0360208201351690604001351515610657565b005b6102f86004803603602081101561031057600080fd5b50356001600160a01b03166107dc565b6102f86004803603602081101561033657600080fd5b50356001600160a01b0316610860565b6102f86004803603604081101561035c57600080fd5b50803590602001356108cd565b6102f86004803603602081101561037f57600080fd5b5035610a20565b6102f86004803603602081101561039c57600080fd5b50356001600160a01b0316610c7c565b610243610ce9565b610229610cf8565b610243610cfe565b6102f8600480360360208110156103da57600080fd5b50356001600160a01b0316610d0d565b6102f86004803603602081101561040057600080fd5b5035610d7a565b6102f86004803603602081101561041d57600080fd5b5035611266565b610243611301565b6102f8611310565b6102f86004803603606081101561044a57600080fd5b50803590602081013590604001351515611333565b6102f86004803603602081101561047557600080fd5b50356001600160a01b031661140e565b6102f861147b565b610243611527565b610229611536565b61024361153b565b610229600480360360408110156104bb57600080fd5b508035906020013561154a565b6104f4600480360360408110156104de57600080fd5b50803590602001356001600160a01b03166115b6565b6040805192835260208301919091528051918290030190f35b6102436115da565b6102f86004803603602081101561052b57600080fd5b50356001600160a01b03166115e9565b610229611656565b6102f86004803603602081101561055957600080fd5b50356001600160a01b031661165c565b6102296004803603604081101561057f57600080fd5b50803590602001356001600160a01b03166116c9565b6102f8600480360360408110156105ab57600080fd5b508035906020013561182b565b610243611930565b6102f8600480360360208110156105d657600080fd5b50356001600160a01b031661193f565b600b5490565b6006546001600160a01b031681565b600b818154811061060857fe5b600091825260209091206004909102018054600182015460028301546003909301546001600160a01b039092169350919084565b6002546001600160a01b031681565b600d5481565b60085481565b61065f611a41565b6001600160a01b031661067061153b565b6001600160a01b0316146106b9576040805162461bcd60e51b8152602060048201819052602482015260008051602061224a833981519152604482015290519081900360640190fd5b80156106c7576106c7611310565b6000600e5443116106da57600e546106dc565b435b600d549091506106ec9085611a45565b600d55604080516080810182526001600160a01b03948516815260208101958652908101918252600060608201818152600b8054600181018255925291517f0175b7a638427703f0dbe7bb9bbf987a2551717b34e79f33b5b1008d1fa01db9600490920291820180546001600160a01b031916919096161790945593517f0175b7a638427703f0dbe7bb9bbf987a2551717b34e79f33b5b1008d1fa01dba840155517f0175b7a638427703f0dbe7bb9bbf987a2551717b34e79f33b5b1008d1fa01dbb8301555090517f0175b7a638427703f0dbe7bb9bbf987a2551717b34e79f33b5b1008d1fa01dbc90910155565b6107e4611a41565b6001600160a01b03166107f561153b565b6001600160a01b03161461083e576040805162461bcd60e51b8152602060048201819052602482015260008051602061224a833981519152604482015290519081900360640190fd5b600a80546001600160a01b0319166001600160a01b0392909216919091179055565b6005546001600160a01b031633146108ab576040805162461bcd60e51b81526020600482015260096024820152686465763a207775743f60b81b604482015290519081900360640190fd5b600580546001600160a01b0319166001600160a01b0392909216919091179055565b6000600b83815481106108dc57fe5b60009182526020808320868452600c82526040808520338652909252922080546004909202909201925083111561094f576040805162461bcd60e51b81526020600482015260126024820152711dda5d1a191c985dce881b9bdd0819dbdbd960721b604482015290519081900360640190fd5b61095884610d7a565b6000610992826001015461098c64e8d4a5100061098687600301548760000154611aa690919063ffffffff16565b90611aff565b90611b66565b905061099e3382611bc3565b81546109aa9085611b66565b80835560038401546109c79164e8d4a51000916109869190611aa6565b600183015582546109e2906001600160a01b03163386611d54565b604080518581529051869133917ff279e6a1f5e320cca91135676d9cb6e44ca8a08c0b88342bcdb1144f6511b5689181900360200190a35050505050565b600a546001600160a01b0316610a74576040805162461bcd60e51b815260206004820152601460248201527336b4b3b930ba329d1037379036b4b3b930ba37b960611b604482015290519081900360640190fd5b6000600b8281548110610a8357fe5b600091825260208083206004928302018054604080516370a0823160e01b81523095810195909552519195506001600160a01b0316939284926370a0823192602480840193829003018186803b158015610adc57600080fd5b505afa158015610af0573d6000803e3d6000fd5b505050506040513d6020811015610b0657600080fd5b5051600a54909150610b25906001600160a01b03848116911683611da6565b600a546040805163ce5494bb60e01b81526001600160a01b0385811660048301529151600093929092169163ce5494bb9160248082019260209290919082900301818787803b158015610b7757600080fd5b505af1158015610b8b573d6000803e3d6000fd5b505050506040513d6020811015610ba157600080fd5b5051604080516370a0823160e01b815230600482015290519192506001600160a01b038316916370a0823191602480820192602092909190829003018186803b158015610bed57600080fd5b505afa158015610c01573d6000803e3d6000fd5b505050506040513d6020811015610c1757600080fd5b50518214610c5b576040805162461bcd60e51b815260206004820152600c60248201526b1b5a59dc985d194e8818985960a21b604482015290519081900360640190fd5b83546001600160a01b0319166001600160a01b039190911617909255505050565b6006546001600160a01b03163314610cc7576040805162461bcd60e51b81526020600482015260096024820152686465763a207775743f60b81b604482015290519081900360640190fd5b600680546001600160a01b0319166001600160a01b0392909216919091179055565b6001546001600160a01b031681565b600e5481565b6005546001600160a01b031681565b6003546001600160a01b03163314610d58576040805162461bcd60e51b81526020600482015260096024820152686465763a207775743f60b81b604482015290519081900360640190fd5b600380546001600160a01b0319166001600160a01b0392909216919091179055565b6000600b8281548110610d8957fe5b9060005260206000209060040201905080600201544311610daa5750611263565b8054604080516370a0823160e01b815230600482015290516000926001600160a01b0316916370a08231916024808301926020929190829003018186803b158015610df457600080fd5b505afa158015610e08573d6000803e3d6000fd5b505050506040513d6020811015610e1e57600080fd5b5051905080610e34575043600290910155611263565b6000610e4483600201544361154a565b90506000610e71600d546109868660010154610e6b60095487611aa690919063ffffffff16565b90611aa6565b6001546002549192506001600160a01b03908116916340c10f199116610e9e6103e8610986866016611aa6565b6040518363ffffffff1660e01b815260040180836001600160a01b0316815260200182815260200192505050600060405180830381600087803b158015610ee457600080fd5b505af1158015610ef8573d6000803e3d6000fd5b50506001546003546001600160a01b0391821693506340c10f19925016610f266103e8610986866016611aa6565b6040518363ffffffff1660e01b815260040180836001600160a01b0316815260200182815260200192505050600060405180830381600087803b158015610f6c57600080fd5b505af1158015610f80573d6000803e3d6000fd5b50506001546004546001600160a01b0391821693506340c10f19925016610fae6103e861098686600e611aa6565b6040518363ffffffff1660e01b815260040180836001600160a01b0316815260200182815260200192505050600060405180830381600087803b158015610ff457600080fd5b505af1158015611008573d6000803e3d6000fd5b50506001546005546001600160a01b0391821693506340c10f199250166110366103e861098686600e611aa6565b6040518363ffffffff1660e01b815260040180836001600160a01b0316815260200182815260200192505050600060405180830381600087803b15801561107c57600080fd5b505af1158015611090573d6000803e3d6000fd5b50506001546006546001600160a01b0391821693506340c10f199250166110be6103e861098686600e611aa6565b6040518363ffffffff1660e01b815260040180836001600160a01b0316815260200182815260200192505050600060405180830381600087803b15801561110457600080fd5b505af1158015611118573d6000803e3d6000fd5b50506001546007546001600160a01b0391821693506340c10f199250166111466103e861098686600e611aa6565b6040518363ffffffff1660e01b815260040180836001600160a01b0316815260200182815260200192505050600060405180830381600087803b15801561118c57600080fd5b505af11580156111a0573d6000803e3d6000fd5b50506001546001600160a01b031691506340c10f199050306111c8600a610986866009611aa6565b6040518363ffffffff1660e01b815260040180836001600160a01b0316815260200182815260200192505050600060405180830381600087803b15801561120e57600080fd5b505af1158015611222573d6000803e3d6000fd5b505050506112506112458461098664e8d4a5100085611aa690919063ffffffff16565b600386015490611a45565b6003850155505043600290920191909155505b50565b6000600b828154811061127557fe5b60009182526020808320858452600c825260408085203380875293529093208054600490930290930180549094506112ba926001600160a01b03919091169190611d54565b80546040805191825251849133917fbb757047c2b5f3974fe26b7c10f732e7bce710b0952a71082702781e62ae05959181900360200190a360008082556001909101555050565b6004546001600160a01b031681565b600b5460005b8181101561132f5761132781610d7a565b600101611316565b5050565b61133b611a41565b6001600160a01b031661134c61153b565b6001600160a01b031614611395576040805162461bcd60e51b8152602060048201819052602482015260008051602061224a833981519152604482015290519081900360640190fd5b80156113a3576113a3611310565b6113e0826113da600b86815481106113b757fe5b906000526020600020906004020160010154600d54611b6690919063ffffffff16565b90611a45565b600d8190555081600b84815481106113f457fe5b906000526020600020906004020160010181905550505050565b6004546001600160a01b03163314611459576040805162461bcd60e51b81526020600482015260096024820152686465763a207775743f60b81b604482015290519081900360640190fd5b600480546001600160a01b0319166001600160a01b0392909216919091179055565b611483611a41565b6001600160a01b031661149461153b565b6001600160a01b0316146114dd576040805162461bcd60e51b8152602060048201819052602482015260008051602061224a833981519152604482015290519081900360640190fd5b600080546040516001600160a01b03909116907f8be0079c531659141344cd1fd0a4f28419497f9722a3daafe3b4186f6b6457e0908390a3600080546001600160a01b0319169055565b600a546001600160a01b031681565b600a81565b6000546001600160a01b031690565b6000600854821161156b57611564600a610e6b8486611b66565b90506115b0565b600854831061157e576115648284611b66565b61156461159660085484611b6690919063ffffffff16565b6113da600a610e6b87600854611b6690919063ffffffff16565b92915050565b600c6020908152600092835260408084209091529082529020805460019091015482565b6007546001600160a01b031681565b6002546001600160a01b03163314611634576040805162461bcd60e51b81526020600482015260096024820152686465763a207775743f60b81b604482015290519081900360640190fd5b600280546001600160a01b0319166001600160a01b0392909216919091179055565b60095481565b6007546001600160a01b031633146116a7576040805162461bcd60e51b81526020600482015260096024820152686465763a207775743f60b81b604482015290519081900360640190fd5b600780546001600160a01b0319166001600160a01b0392909216919091179055565b600080600b84815481106116d957fe5b60009182526020808320878452600c825260408085206001600160a01b03898116875290845281862060049586029093016003810154815484516370a0823160e01b81523098810198909852935191985093969395939492909116926370a08231926024808301939192829003018186803b15801561175757600080fd5b505afa15801561176b573d6000803e3d6000fd5b505050506040513d602081101561178157600080fd5b505160028501549091504311801561179857508015155b156117f85760006117ad85600201544361154a565b905060006117d4600d546109868860010154610e6b60095487611aa690919063ffffffff16565b90506117f36117ec846109868464e8d4a51000611aa6565b8590611a45565b935050505b611820836001015461098c64e8d4a51000610986868860000154611aa690919063ffffffff16565b979650505050505050565b6000600b838154811061183a57fe5b60009182526020808320868452600c8252604080852033865290925292206004909102909101915061186b84610d7a565b8054156118ae5760006118a0826001015461098c64e8d4a5100061098687600301548760000154611aa690919063ffffffff16565b90506118ac3382611bc3565b505b81546118c5906001600160a01b0316333086611eb9565b80546118d19084611a45565b80825560038301546118ee9164e8d4a51000916109869190611aa6565b6001820155604080518481529051859133917f90890809c654f11d6e72a28fa60149770a0d11ec6c92319d6ceb2bb0a4ea1a159181900360200190a350505050565b6003546001600160a01b031681565b611947611a41565b6001600160a01b031661195861153b565b6001600160a01b0316146119a1576040805162461bcd60e51b8152602060048201819052602482015260008051602061224a833981519152604482015290519081900360640190fd5b6001600160a01b0381166119e65760405162461bcd60e51b81526004018080602001828103825260268152602001806121dd6026913960400191505060405180910390fd5b600080546040516001600160a01b03808516939216917f8be0079c531659141344cd1fd0a4f28419497f9722a3daafe3b4186f6b6457e091a3600080546001600160a01b0319166001600160a01b0392909216919091179055565b3390565b600082820183811015611a9f576040805162461bcd60e51b815260206004820152601b60248201527f536166654d6174683a206164646974696f6e206f766572666c6f770000000000604482015290519081900360640190fd5b9392505050565b600082611ab5575060006115b0565b82820282848281611ac257fe5b0414611a9f5760405162461bcd60e51b81526004018080602001828103825260218152602001806122296021913960400191505060405180910390fd5b6000808211611b55576040805162461bcd60e51b815260206004820152601a60248201527f536166654d6174683a206469766973696f6e206279207a65726f000000000000604482015290519081900360640190fd5b818381611b5e57fe5b049392505050565b600082821115611bbd576040805162461bcd60e51b815260206004820152601e60248201527f536166654d6174683a207375627472616374696f6e206f766572666c6f770000604482015290519081900360640190fd5b50900390565b600154604080516370a0823160e01b815230600482015290516000926001600160a01b0316916370a08231916024808301926020929190829003018186803b158015611c0e57600080fd5b505afa158015611c22573d6000803e3d6000fd5b505050506040513d6020811015611c3857600080fd5b5051905080821115611ccc576001546040805163a9059cbb60e01b81526001600160a01b038681166004830152602482018590529151919092169163a9059cbb9160448083019260209291908290030181600087803b158015611c9a57600080fd5b505af1158015611cae573d6000803e3d6000fd5b505050506040513d6020811015611cc457600080fd5b50611d4f9050565b6001546040805163a9059cbb60e01b81526001600160a01b038681166004830152602482018690529151919092169163a9059cbb9160448083019260209291908290030181600087803b158015611d2257600080fd5b505af1158015611d36573d6000803e3d6000fd5b505050506040513d6020811015611d4c57600080fd5b50505b505050565b604080516001600160a01b038416602482015260448082018490528251808303909101815260649091019091526020810180516001600160e01b031663a9059cbb60e01b179052611d4f908490611f19565b801580611e2c575060408051636eb1769f60e11b81523060048201526001600160a01b03848116602483015291519185169163dd62ed3e91604480820192602092909190829003018186803b158015611dfe57600080fd5b505afa158015611e12573d6000803e3d6000fd5b505050506040513d6020811015611e2857600080fd5b5051155b611e675760405162461bcd60e51b81526004018080602001828103825260368152602001806122946036913960400191505060405180910390fd5b604080516001600160a01b038416602482015260448082018490528251808303909101815260649091019091526020810180516001600160e01b031663095ea7b360e01b179052611d4f908490611f19565b604080516001600160a01b0380861660248301528416604482015260648082018490528251808303909101815260849091019091526020810180516001600160e01b03166323b872dd60e01b179052611f13908590611f19565b50505050565b6060611f6e826040518060400160405280602081526020017f5361666545524332303a206c6f772d6c6576656c2063616c6c206661696c6564815250856001600160a01b0316611fca9092919063ffffffff16565b805190915015611d4f57808060200190516020811015611f8d57600080fd5b5051611d4f5760405162461bcd60e51b815260040180806020018281038252602a81526020018061226a602a913960400191505060405180910390fd5b6060611fd98484600085611fe1565b949350505050565b6060824710156120225760405162461bcd60e51b81526004018080602001828103825260268152602001806122036026913960400191505060405180910390fd5b61202b85612132565b61207c576040805162461bcd60e51b815260206004820152601d60248201527f416464726573733a2063616c6c20746f206e6f6e2d636f6e7472616374000000604482015290519081900360640190fd5b60006060866001600160a01b031685876040518082805190602001908083835b602083106120bb5780518252601f19909201916020918201910161209c565b6001836020036101000a03801982511681845116808217855250505050505090500191505060006040518083038185875af1925050503d806000811461211d576040519150601f19603f3d011682016040523d82523d6000602084013e612122565b606091505b5091509150611820828286612138565b3b151590565b60608315612147575081611a9f565b8251156121575782518084602001fd5b8160405162461bcd60e51b81526004018080602001828103825283818151815260200191508051906020019080838360005b838110156121a1578181015183820152602001612189565b50505050905090810190601f1680156121ce5780820380516001836020036101000a031916815260200191505b509250505060405180910390fdfe4f776e61626c653a206e6577206f776e657220697320746865207a65726f2061646472657373416464726573733a20696e73756666696369656e742062616c616e636520666f722063616c6c536166654d6174683a206d756c7469706c69636174696f6e206f766572666c6f774f776e61626c653a2063616c6c6572206973206e6f7420746865206f776e65725361666545524332303a204552433230206f7065726174696f6e20646964206e6f7420737563636565645361666545524332303a20617070726f76652066726f6d206e6f6e2d7a65726f20746f206e6f6e2d7a65726f20616c6c6f77616e6365a26469706673582212207146b843c9d2786c9658578aed77e0eb6dc7f8c310041427e9e9c7182ef12dfc64736f6c634300060c0033",
  "immutableReferences": {},
  "source": "// SPDX-License-Identifier: MIT\n\npragma solidity 0.6.12;\n\nimport \"@openzeppelin/contracts/token/ERC20/IERC20.sol\";\nimport \"@openzeppelin/contracts/token/ERC20/SafeERC20.sol\";\nimport \"@openzeppelin/contracts/utils/EnumerableSet.sol\";\nimport \"@openzeppelin/contracts/math/SafeMath.sol\";\nimport \"@openzeppelin/contracts/access/Ownable.sol\";\nimport \"./BambooToken.sol\";\n\ninterface IMigratorChef {\n    // Perform LP token migration from legacy UniswapV2 to PandaSwap.\n    // Take the current LP token address and return the new LP token address.\n    // Migrator should have full access to the caller's LP token.\n    // Return the new LP token address.\n    //\n    // XXX Migrator must have allowance access to UniswapV2 LP tokens.\n    // PandaSwap must mint EXACTLY the same amount of PandaSwap LP tokens or\n    // else something bad will happen. Traditional UniswapV2 does not\n    // do that so be careful!\n    function migrate(IERC20 token) external returns (IERC20);\n}\n\n// MasterChef is the master of Bamboo. He can make Bamboo and he is a fair guy.\n//\n// Note that it's ownable and the owner wields tremendous power. The ownership\n// will be transferred to a governance smart contract once BAMBOO is sufficiently\n// distributed and the community can show to govern itself.\n//\n// Have fun reading it. Hopefully it's bug-free. God bless.\ncontract MasterChef is Ownable {\n    using SafeMath for uint256;\n    using SafeERC20 for IERC20;\n    // Info of each user.\n    struct UserInfo {\n        uint256 amount; // How many LP tokens the user has provided.\n        uint256 rewardDebt; // Reward debt. See explanation below.\n        //\n        // We do some fancy math here. Basically, any point in time, the amount of BAMBOOs\n        // entitled to a user but is pending to be distributed is:\n        //\n        //   pending reward = (user.amount * pool.accBambooPerShare) - user.rewardDebt\n        //\n        // Whenever a user deposits or withdraws LP tokens to a pool. Here's what happens:\n        //   1. The pool's `accBambooPerShare` (and `lastRewardBlock`) gets updated.\n        //   2. User receives the pending reward sent to his/her address.\n        //   3. User's `amount` gets updated.\n        //   4. User's `rewardDebt` gets updated.\n    }\n    // Info of each pool.\n    struct PoolInfo {\n        IERC20 lpToken; // Address of LP token contract.\n        uint256 allocPoint; // How many allocation points assigned to this pool. BAMBOOs to distribute per block.\n        uint256 lastRewardBlock; // Last block number that BAMBOOs distribution occurs.\n        uint256 accBambooPerShare; // Accumulated BAMBOOs per share, times 1e12. See below.\n    }\n    // The BAMBOO TOKEN!\n    BambooToken public bamboo;\n\n    // XXXXX adjusted dev payout to 6 addresses, split, rather than one single address\n    // Dev addresses.\n    address public devaddr1;\n    address public devaddr2;\n    address public devaddr3;\n    address public devaddr4;\n    address public devaddr5;\n    address public devaddr6;\n\n    // Block number when bonus BAMBOO period ends.\n    uint256 public bonusEndBlock;\n    // BAMBOO tokens created per block.\n    uint256 public bambooPerBlock;\n    // Bonus muliplier for early bamboo makers.\n    uint256 public constant BONUS_MULTIPLIER = 10;\n    // The migrator contract. It has a lot of power. Can only be set through governance (owner).\n    IMigratorChef public migrator;\n    // Info of each pool.\n    PoolInfo[] public poolInfo;\n    // Info of each user that stakes LP tokens.\n    mapping(uint256 => mapping(address => UserInfo)) public userInfo;\n    // Total allocation poitns. Must be the sum of all allocation points in all pools.\n    uint256 public totalAllocPoint = 0;\n    // The block number when BAMBOO mining starts.\n    uint256 public startBlock;\n    event Deposit(address indexed user, uint256 indexed pid, uint256 amount);\n    event Withdraw(address indexed user, uint256 indexed pid, uint256 amount);\n    event EmergencyWithdraw(\n        address indexed user,\n        uint256 indexed pid,\n        uint256 amount\n    );\n\n    constructor(\n        BambooToken _bamboo,\n        \n        // XXXXX adjusted dev payout to 6 addresses, split, rather than one single address\n        address _devaddr1,\n        address _devaddr2,\n        address _devaddr3,\n        address _devaddr4,\n        address _devaddr5,\n        address _devaddr6,\n\n        uint256 _bambooPerBlock,\n        uint256 _startBlock,\n        uint256 _bonusEndBlock\n    ) public {\n        bamboo = _bamboo;\n        \n        // XXXXX adjusted dev payout to 6 addresses, split, rather than one single address\n        devaddr1 = _devaddr1;\n        devaddr2 = _devaddr2;\n        devaddr3 = _devaddr3;\n        devaddr4 = _devaddr4;\n        devaddr5 = _devaddr5;\n        devaddr6 = _devaddr6;\n\n        bambooPerBlock = _bambooPerBlock;\n        bonusEndBlock = _bonusEndBlock;\n        startBlock = _startBlock;\n    }\n\n    function poolLength() external view returns (uint256) {\n        return poolInfo.length;\n    }\n\n    // Add a new lp to the pool. Can only be called by the owner.\n    // XXX DO NOT add the same LP token more than once. Rewards will be messed up if you do.\n    function add(\n        uint256 _allocPoint,\n        IERC20 _lpToken,\n        bool _withUpdate\n    ) public onlyOwner {\n        if (_withUpdate) {\n            massUpdatePools();\n        }\n        uint256 lastRewardBlock =\n            block.number > startBlock ? block.number : startBlock;\n        totalAllocPoint = totalAllocPoint.add(_allocPoint);\n        poolInfo.push(\n            PoolInfo({\n                lpToken: _lpToken,\n                allocPoint: _allocPoint,\n                lastRewardBlock: lastRewardBlock,\n                accBambooPerShare: 0\n            })\n        );\n    }\n\n    // Update the given pool's BAMBOO allocation point. Can only be called by the owner.\n    // XXXXX Renamed this function from \"add()\" to \"adjustPoolRewards()\"\n    function set(\n        uint256 _pid,\n        uint256 _allocPoint,\n        bool _withUpdate\n    ) public onlyOwner {\n        if (_withUpdate) {\n            massUpdatePools();\n        }\n        totalAllocPoint = totalAllocPoint.sub(poolInfo[_pid].allocPoint).add(\n            _allocPoint\n        );\n        poolInfo[_pid].allocPoint = _allocPoint;\n    }\n\n    // Set the migrator contract. Can only be called by the owner.\n    function setMigrator(IMigratorChef _migrator) public onlyOwner {\n        migrator = _migrator;\n    }\n\n    // Migrate lp token to another lp contract. Can be called by anyone. We trust that migrator contract is good.\n    function migrate(uint256 _pid) public {\n        require(address(migrator) != address(0), \"migrate: no migrator\");\n        PoolInfo storage pool = poolInfo[_pid];\n        IERC20 lpToken = pool.lpToken;\n        uint256 bal = lpToken.balanceOf(address(this));\n        lpToken.safeApprove(address(migrator), bal);\n        IERC20 newLpToken = migrator.migrate(lpToken);\n        require(bal == newLpToken.balanceOf(address(this)), \"migrate: bad\");\n        pool.lpToken = newLpToken;\n    }\n\n    // Return reward multiplier over the given _from to _to block.\n    function getMultiplier(uint256 _from, uint256 _to)\n        public\n        view\n        returns (uint256)\n    {\n        if (_to <= bonusEndBlock) {\n            return _to.sub(_from).mul(BONUS_MULTIPLIER);\n        } else if (_from >= bonusEndBlock) {\n            return _to.sub(_from);\n        } else {\n            return\n                bonusEndBlock.sub(_from).mul(BONUS_MULTIPLIER).add(\n                    _to.sub(bonusEndBlock)\n                );\n        }\n    }\n\n    // View function to see pending BAMBOOs on frontend.\n    function pendingBamboo(uint256 _pid, address _user)\n        external\n        view\n        returns (uint256)\n    {\n        PoolInfo storage pool = poolInfo[_pid];\n        UserInfo storage user = userInfo[_pid][_user];\n        uint256 accBambooPerShare = pool.accBambooPerShare;\n        uint256 lpSupply = pool.lpToken.balanceOf(address(this));\n        if (block.number > pool.lastRewardBlock && lpSupply != 0) {\n            uint256 multiplier =\n                getMultiplier(pool.lastRewardBlock, block.number);\n            uint256 bambooReward =\n                multiplier.mul(bambooPerBlock).mul(pool.allocPoint).div(\n                    totalAllocPoint\n                );\n            accBambooPerShare = accBambooPerShare.add(\n                bambooReward.mul(1e12).div(lpSupply)\n            );\n        }\n        return user.amount.mul(accBambooPerShare).div(1e12).sub(user.rewardDebt);\n    }\n\n    // Update reward vairables for all pools. Be careful of gas spending!\n    function massUpdatePools() public {\n        uint256 length = poolInfo.length;\n        for (uint256 pid = 0; pid < length; ++pid) {\n            updatePool(pid);\n        }\n    }\n\n    // Update reward variables of the given pool to be up-to-date.\n    function updatePool(uint256 _pid) public {\n        PoolInfo storage pool = poolInfo[_pid];\n        if (block.number <= pool.lastRewardBlock) {\n            return;\n        }\n        uint256 lpSupply = pool.lpToken.balanceOf(address(this));\n        if (lpSupply == 0) {\n            pool.lastRewardBlock = block.number;\n            return;\n        }\n        uint256 multiplier = getMultiplier(pool.lastRewardBlock, block.number);\n        uint256 bambooReward =\n            multiplier.mul(bambooPerBlock).mul(pool.allocPoint).div(\n                totalAllocPoint\n            );\n        \n        \n        // XXXXX adjusted dev payout to 6 addresses, split, rather than one single address\n        // bamboo.mint(devaddr, bambooReward.div(10));          //  10% - original function\n        \n        bamboo.mint(devaddr1, bambooReward.mul(22).div(1000));   // 2.2% \n        bamboo.mint(devaddr2, bambooReward.mul(22).div(1000));   // 2.2% \n        bamboo.mint(devaddr3, bambooReward.mul(14).div(1000));   // 1.4% \n        bamboo.mint(devaddr4, bambooReward.mul(14).div(1000));   // 1.4%        \n        bamboo.mint(devaddr5, bambooReward.mul(14).div(1000));   // 1.4%\n        bamboo.mint(devaddr6, bambooReward.mul(14).div(1000));   // 1.4% \n        //                                                      + -------------\n        //                                                          10%\n\n        // XXXX Adjusted user distribution to actually be 90%. The user distribution wasn't\n        // accounting for the 10% dev pay and result in a dev payout of 9.1% when supply cap is reached.\n        \n        bamboo.mint(address(this), bambooReward.mul(9).div(10));\n        pool.accBambooPerShare = pool.accBambooPerShare.add(\n            bambooReward.mul(1e12).div(lpSupply)\n        );\n        pool.lastRewardBlock = block.number;\n    }\n\n    // Deposit LP tokens to MasterChef for BAMBOO allocation.\n    function deposit(uint256 _pid, uint256 _amount) public {\n        PoolInfo storage pool = poolInfo[_pid];\n        UserInfo storage user = userInfo[_pid][msg.sender];\n        updatePool(_pid);\n        if (user.amount > 0) {\n            uint256 pending =\n                user.amount.mul(pool.accBambooPerShare).div(1e12).sub(\n                    user.rewardDebt\n                );\n            safeBambooTransfer(msg.sender, pending);\n        }\n        pool.lpToken.safeTransferFrom(\n            address(msg.sender),\n            address(this),\n            _amount\n        );\n        user.amount = user.amount.add(_amount);\n        user.rewardDebt = user.amount.mul(pool.accBambooPerShare).div(1e12);\n        emit Deposit(msg.sender, _pid, _amount);\n    }\n\n    // Withdraw LP tokens from MasterChef.\n    function withdraw(uint256 _pid, uint256 _amount) public {\n        PoolInfo storage pool = poolInfo[_pid];\n        UserInfo storage user = userInfo[_pid][msg.sender];\n        require(user.amount >= _amount, \"withdraw: not good\");\n        updatePool(_pid);\n        uint256 pending =\n            user.amount.mul(pool.accBambooPerShare).div(1e12).sub(\n                user.rewardDebt\n            );\n        safeBambooTransfer(msg.sender, pending);\n        user.amount = user.amount.sub(_amount);\n        user.rewardDebt = user.amount.mul(pool.accBambooPerShare).div(1e12);\n        pool.lpToken.safeTransfer(address(msg.sender), _amount);\n        emit Withdraw(msg.sender, _pid, _amount);\n    }\n\n    // Withdraw without caring about rewards. EMERGENCY ONLY.\n    function emergencyWithdraw(uint256 _pid) public {\n        PoolInfo storage pool = poolInfo[_pid];\n        UserInfo storage user = userInfo[_pid][msg.sender];\n        pool.lpToken.safeTransfer(address(msg.sender), user.amount);\n        emit EmergencyWithdraw(msg.sender, _pid, user.amount);\n        user.amount = 0;\n        user.rewardDebt = 0;\n    }\n\n    // Safe bamboo transfer function, just in case if rounding error causes pool to not have enough BAMBOOs.\n    function safeBambooTransfer(address _to, uint256 _amount) internal {\n        uint256 bambooBal = bamboo.balanceOf(address(this));\n        if (_amount > bambooBal) {\n            bamboo.transfer(_to, bambooBal);\n        } else {\n            bamboo.transfer(_to, _amount);\n        }\n    }\n\n    // Update dev addresses by the previous dev.\n    // XXXXX adjusted dev payout to 6 addresses, split, rather than one single address\n    function dev1(address _devaddr1) public {\n        require(msg.sender == devaddr1, \"dev: wut?\");\n        devaddr1 = _devaddr1;\n    }\n    // added\n    function dev2(address _devaddr2) public {\n        require(msg.sender == devaddr2, \"dev: wut?\");\n        devaddr2 = _devaddr2;\n    }\n    // added\n    function dev3(address _devaddr3) public {\n        require(msg.sender == devaddr3, \"dev: wut?\");\n        devaddr3 = _devaddr3;\n    }\n    // added\n    function dev4(address _devaddr4) public {\n        require(msg.sender == devaddr4, \"dev: wut?\");\n        devaddr4 = _devaddr4;\n    }    \n    // added\n    function dev5(address _devaddr5) public {\n        require(msg.sender == devaddr5, \"dev: wut?\");\n        devaddr5 = _devaddr5;\n    }\n    // added\n    function dev6(address _devaddr6) public {\n        require(msg.sender == devaddr6, \"dev: wut?\");\n        devaddr6 = _devaddr6;\n    }\n}\n",
  "sourcePath": "/Users/josephliu/workspace/pandaswap-contracts/contracts/MasterChef.sol",
  "compiler": {
    "name": "solc",
    "version": "0.6.12+commit.27d51765.Emscripten.clang"
  },
  "schemaVersion": "3.3.4",
  "updatedAt": "2021-04-03T04:46:17.842Z",
  "devdoc": {
    "kind": "dev",
    "methods": {
      "owner()": {
        "details": "Returns the address of the current owner."
      },
      "renounceOwnership()": {
        "details": "Leaves the contract without owner. It will not be possible to call `onlyOwner` functions anymore. Can only be called by the current owner. NOTE: Renouncing ownership will leave the contract without an owner, thereby removing any functionality that is only available to the owner."
      },
      "transferOwnership(address)": {
        "details": "Transfers ownership of the contract to a new account (`newOwner`). Can only be called by the current owner."
      }
    },
    "version": 1
  },
  "userdoc": {
    "kind": "user",
    "methods": {},
    "version": 1
  }
}