{
  "contractName": "MasterChef",
  "abi": [
    {
      "inputs": [
        {
          "internalType": "contract BambooToken",
          "name": "_bamboo",
          "type": "address"
        },
        {
          "internalType": "address",
          "name": "_devaddr",
          "type": "address"
        },
        {
          "internalType": "uint256",
          "name": "_bambooPerBlock",
          "type": "uint256"
        },
        {
          "internalType": "uint256",
          "name": "_startBlock",
          "type": "uint256"
        },
        {
          "internalType": "uint256",
          "name": "_bonusEndBlock",
          "type": "uint256"
        }
      ],
      "stateMutability": "nonpayable",
      "type": "constructor"
    },
    {
      "anonymous": false,
      "inputs": [
        {
          "indexed": true,
          "internalType": "address",
          "name": "user",
          "type": "address"
        },
        {
          "indexed": true,
          "internalType": "uint256",
          "name": "pid",
          "type": "uint256"
        },
        {
          "indexed": false,
          "internalType": "uint256",
          "name": "amount",
          "type": "uint256"
        }
      ],
      "name": "Deposit",
      "type": "event"
    },
    {
      "anonymous": false,
      "inputs": [
        {
          "indexed": true,
          "internalType": "address",
          "name": "user",
          "type": "address"
        },
        {
          "indexed": true,
          "internalType": "uint256",
          "name": "pid",
          "type": "uint256"
        },
        {
          "indexed": false,
          "internalType": "uint256",
          "name": "amount",
          "type": "uint256"
        }
      ],
      "name": "EmergencyWithdraw",
      "type": "event"
    },
    {
      "anonymous": false,
      "inputs": [
        {
          "indexed": true,
          "internalType": "address",
          "name": "previousOwner",
          "type": "address"
        },
        {
          "indexed": true,
          "internalType": "address",
          "name": "newOwner",
          "type": "address"
        }
      ],
      "name": "OwnershipTransferred",
      "type": "event"
    },
    {
      "anonymous": false,
      "inputs": [
        {
          "indexed": true,
          "internalType": "address",
          "name": "user",
          "type": "address"
        },
        {
          "indexed": true,
          "internalType": "uint256",
          "name": "pid",
          "type": "uint256"
        },
        {
          "indexed": false,
          "internalType": "uint256",
          "name": "amount",
          "type": "uint256"
        }
      ],
      "name": "Withdraw",
      "type": "event"
    },
    {
      "inputs": [],
      "name": "BONUS_MULTIPLIER",
      "outputs": [
        {
          "internalType": "uint256",
          "name": "",
          "type": "uint256"
        }
      ],
      "stateMutability": "view",
      "type": "function",
      "constant": true
    },
    {
      "inputs": [],
      "name": "bamboo",
      "outputs": [
        {
          "internalType": "contract BambooToken",
          "name": "",
          "type": "address"
        }
      ],
      "stateMutability": "view",
      "type": "function",
      "constant": true
    },
    {
      "inputs": [],
      "name": "bambooPerBlock",
      "outputs": [
        {
          "internalType": "uint256",
          "name": "",
          "type": "uint256"
        }
      ],
      "stateMutability": "view",
      "type": "function",
      "constant": true
    },
    {
      "inputs": [],
      "name": "bonusEndBlock",
      "outputs": [
        {
          "internalType": "uint256",
          "name": "",
          "type": "uint256"
        }
      ],
      "stateMutability": "view",
      "type": "function",
      "constant": true
    },
    {
      "inputs": [],
      "name": "devaddr",
      "outputs": [
        {
          "internalType": "address",
          "name": "",
          "type": "address"
        }
      ],
      "stateMutability": "view",
      "type": "function",
      "constant": true
    },
    {
      "inputs": [],
      "name": "migrator",
      "outputs": [
        {
          "internalType": "contract IMigratorChef",
          "name": "",
          "type": "address"
        }
      ],
      "stateMutability": "view",
      "type": "function",
      "constant": true
    },
    {
      "inputs": [],
      "name": "owner",
      "outputs": [
        {
          "internalType": "address",
          "name": "",
          "type": "address"
        }
      ],
      "stateMutability": "view",
      "type": "function",
      "constant": true
    },
    {
      "inputs": [
        {
          "internalType": "uint256",
          "name": "",
          "type": "uint256"
        }
      ],
      "name": "poolInfo",
      "outputs": [
        {
          "internalType": "contract IERC20",
          "name": "lpToken",
          "type": "address"
        },
        {
          "internalType": "uint256",
          "name": "allocPoint",
          "type": "uint256"
        },
        {
          "internalType": "uint256",
          "name": "lastRewardBlock",
          "type": "uint256"
        },
        {
          "internalType": "uint256",
          "name": "accBambooPerShare",
          "type": "uint256"
        }
      ],
      "stateMutability": "view",
      "type": "function",
      "constant": true
    },
    {
      "inputs": [],
      "name": "renounceOwnership",
      "outputs": [],
      "stateMutability": "nonpayable",
      "type": "function"
    },
    {
      "inputs": [],
      "name": "startBlock",
      "outputs": [
        {
          "internalType": "uint256",
          "name": "",
          "type": "uint256"
        }
      ],
      "stateMutability": "view",
      "type": "function",
      "constant": true
    },
    {
      "inputs": [],
      "name": "totalAllocPoint",
      "outputs": [
        {
          "internalType": "uint256",
          "name": "",
          "type": "uint256"
        }
      ],
      "stateMutability": "view",
      "type": "function",
      "constant": true
    },
    {
      "inputs": [
        {
          "internalType": "address",
          "name": "newOwner",
          "type": "address"
        }
      ],
      "name": "transferOwnership",
      "outputs": [],
      "stateMutability": "nonpayable",
      "type": "function"
    },
    {
      "inputs": [
        {
          "internalType": "uint256",
          "name": "",
          "type": "uint256"
        },
        {
          "internalType": "address",
          "name": "",
          "type": "address"
        }
      ],
      "name": "userInfo",
      "outputs": [
        {
          "internalType": "uint256",
          "name": "amount",
          "type": "uint256"
        },
        {
          "internalType": "uint256",
          "name": "rewardDebt",
          "type": "uint256"
        }
      ],
      "stateMutability": "view",
      "type": "function",
      "constant": true
    },
    {
      "inputs": [],
      "name": "poolLength",
      "outputs": [
        {
          "internalType": "uint256",
          "name": "",
          "type": "uint256"
        }
      ],
      "stateMutability": "view",
      "type": "function",
      "constant": true
    },
    {
      "inputs": [
        {
          "internalType": "uint256",
          "name": "_allocPoint",
          "type": "uint256"
        },
        {
          "internalType": "contract IERC20",
          "name": "_lpToken",
          "type": "address"
        },
        {
          "internalType": "bool",
          "name": "_withUpdate",
          "type": "bool"
        }
      ],
      "name": "add",
      "outputs": [],
      "stateMutability": "nonpayable",
      "type": "function"
    },
    {
      "inputs": [
        {
          "internalType": "uint256",
          "name": "_pid",
          "type": "uint256"
        },
        {
          "internalType": "uint256",
          "name": "_allocPoint",
          "type": "uint256"
        },
        {
          "internalType": "bool",
          "name": "_withUpdate",
          "type": "bool"
        }
      ],
      "name": "set",
      "outputs": [],
      "stateMutability": "nonpayable",
      "type": "function"
    },
    {
      "inputs": [
        {
          "internalType": "contract IMigratorChef",
          "name": "_migrator",
          "type": "address"
        }
      ],
      "name": "setMigrator",
      "outputs": [],
      "stateMutability": "nonpayable",
      "type": "function"
    },
    {
      "inputs": [
        {
          "internalType": "uint256",
          "name": "_pid",
          "type": "uint256"
        }
      ],
      "name": "migrate",
      "outputs": [],
      "stateMutability": "nonpayable",
      "type": "function"
    },
    {
      "inputs": [
        {
          "internalType": "uint256",
          "name": "_from",
          "type": "uint256"
        },
        {
          "internalType": "uint256",
          "name": "_to",
          "type": "uint256"
        }
      ],
      "name": "getMultiplier",
      "outputs": [
        {
          "internalType": "uint256",
          "name": "",
          "type": "uint256"
        }
      ],
      "stateMutability": "view",
      "type": "function",
      "constant": true
    },
    {
      "inputs": [
        {
          "internalType": "uint256",
          "name": "_pid",
          "type": "uint256"
        },
        {
          "internalType": "address",
          "name": "_user",
          "type": "address"
        }
      ],
      "name": "pendingBamboo",
      "outputs": [
        {
          "internalType": "uint256",
          "name": "",
          "type": "uint256"
        }
      ],
      "stateMutability": "view",
      "type": "function",
      "constant": true
    },
    {
      "inputs": [],
      "name": "massUpdatePools",
      "outputs": [],
      "stateMutability": "nonpayable",
      "type": "function"
    },
    {
      "inputs": [
        {
          "internalType": "uint256",
          "name": "_pid",
          "type": "uint256"
        }
      ],
      "name": "updatePool",
      "outputs": [],
      "stateMutability": "nonpayable",
      "type": "function"
    },
    {
      "inputs": [
        {
          "internalType": "uint256",
          "name": "_pid",
          "type": "uint256"
        },
        {
          "internalType": "uint256",
          "name": "_amount",
          "type": "uint256"
        }
      ],
      "name": "deposit",
      "outputs": [],
      "stateMutability": "nonpayable",
      "type": "function"
    },
    {
      "inputs": [
        {
          "internalType": "uint256",
          "name": "_pid",
          "type": "uint256"
        },
        {
          "internalType": "uint256",
          "name": "_amount",
          "type": "uint256"
        }
      ],
      "name": "withdraw",
      "outputs": [],
      "stateMutability": "nonpayable",
      "type": "function"
    },
    {
      "inputs": [
        {
          "internalType": "uint256",
          "name": "_pid",
          "type": "uint256"
        }
      ],
      "name": "emergencyWithdraw",
      "outputs": [],
      "stateMutability": "nonpayable",
      "type": "function"
    },
    {
      "inputs": [
        {
          "internalType": "address",
          "name": "_devaddr",
          "type": "address"
        }
      ],
      "name": "dev",
      "outputs": [],
      "stateMutability": "nonpayable",
      "type": "function"
    }
  ],
  "bytecode": "0x6080604052600060085534801561001557600080fd5b50604051611d56380380611d56833981810160405260a081101561003857600080fd5b5080516020820151604083015160608401516080909401519293919290919060006100616100e9565b600080546001600160a01b0319166001600160a01b0383169081178255604051929350917f8be0079c531659141344cd1fd0a4f28419497f9722a3daafe3b4186f6b6457e0908290a350600180546001600160a01b039687166001600160a01b03199182161790915560028054959096169416939093179093556004556003556009556100ed565b3390565b611c5a806100fc6000396000f3fe608060405234801561001057600080fd5b506004361061018e5760003560e01c806364482f79116100de5780638dbb1e3a11610097578063d49e77cd11610071578063d49e77cd146103f5578063de86b677146103fd578063e2bbb15814610429578063f2fde38b1461044c5761018e565b80638dbb1e3a1461038557806393f1a40b146103a8578063ce7410bd146103ed5761018e565b806364482f7914610314578063715018a61461033f5780637cd07e47146103475780638aa285501461034f5780638d88a90e146103575780638da5cb5b1461037d5761018e565b8063441a3e701161014b57806348cd4cb11161012557806348cd4cb1146102ca57806351eb05a6146102d25780635312ea8e146102ef578063630b5ba11461030c5761018e565b8063441a3e7014610266578063454b0608146102895780634623eff0146102a65761018e565b8063081e3eda146101935780631526fe27146101ad57806317caf6f1146101fa5780631aed6553146102025780631eaaa0451461020a57806323cf311814610240575b600080fd5b61019b610472565b60408051918252519081900360200190f35b6101ca600480360360208110156101c357600080fd5b5035610478565b604080516001600160a01b0390951685526020850193909352838301919091526060830152519081900360800190f35b61019b6104b9565b61019b6104bf565b61023e6004803603606081101561022057600080fd5b508035906001600160a01b03602082013516906040013515156104c5565b005b61023e6004803603602081101561025657600080fd5b50356001600160a01b031661064a565b61023e6004803603604081101561027c57600080fd5b50803590602001356106ce565b61023e6004803603602081101561029f57600080fd5b5035610821565b6102ae610a7d565b604080516001600160a01b039092168252519081900360200190f35b61019b610a8c565b61023e600480360360208110156102e857600080fd5b5035610a92565b61023e6004803603602081101561030557600080fd5b5035610cb9565b61023e610d54565b61023e6004803603606081101561032a57600080fd5b50803590602081013590604001351515610d77565b61023e610e52565b6102ae610efe565b61019b610f0d565b61023e6004803603602081101561036d57600080fd5b50356001600160a01b0316610f12565b6102ae610f7f565b61019b6004803603604081101561039b57600080fd5b5080359060200135610f8e565b6103d4600480360360408110156103be57600080fd5b50803590602001356001600160a01b0316610ffa565b6040805192835260208301919091528051918290030190f35b61019b61101e565b6102ae611024565b61019b6004803603604081101561041357600080fd5b50803590602001356001600160a01b0316611033565b61023e6004803603604081101561043f57600080fd5b5080359060200135611195565b61023e6004803603602081101561046257600080fd5b50356001600160a01b031661129a565b60065490565b6006818154811061048557fe5b600091825260209091206004909102018054600182015460028301546003909301546001600160a01b039092169350919084565b60085481565b60035481565b6104cd61139c565b6001600160a01b03166104de610f7f565b6001600160a01b031614610527576040805162461bcd60e51b81526020600482018190526024820152600080516020611ba5833981519152604482015290519081900360640190fd5b801561053557610535610d54565b600060095443116105485760095461054a565b435b60085490915061055a90856113a0565b600855604080516080810182526001600160a01b0394851681526020810195865290810191825260006060820181815260068054600181018255925291517ff652222313e28459528d920b65115c16c04f3efc82aaedc97be59f3f377c0d3f600490920291820180546001600160a01b031916919096161790945593517ff652222313e28459528d920b65115c16c04f3efc82aaedc97be59f3f377c0d40840155517ff652222313e28459528d920b65115c16c04f3efc82aaedc97be59f3f377c0d418301555090517ff652222313e28459528d920b65115c16c04f3efc82aaedc97be59f3f377c0d4290910155565b61065261139c565b6001600160a01b0316610663610f7f565b6001600160a01b0316146106ac576040805162461bcd60e51b81526020600482018190526024820152600080516020611ba5833981519152604482015290519081900360640190fd5b600580546001600160a01b0319166001600160a01b0392909216919091179055565b6000600683815481106106dd57fe5b600091825260208083208684526007825260408085203386529092529220805460049092029092019250831115610750576040805162461bcd60e51b81526020600482015260126024820152711dda5d1a191c985dce881b9bdd0819dbdbd960721b604482015290519081900360640190fd5b61075984610a92565b6000610793826001015461078d64e8d4a510006107878760030154876000015461140190919063ffffffff16565b9061145a565b906114c1565b905061079f338261151e565b81546107ab90856114c1565b80835560038401546107c89164e8d4a51000916107879190611401565b600183015582546107e3906001600160a01b031633866116af565b604080518581529051869133917ff279e6a1f5e320cca91135676d9cb6e44ca8a08c0b88342bcdb1144f6511b5689181900360200190a35050505050565b6005546001600160a01b0316610875576040805162461bcd60e51b815260206004820152601460248201527336b4b3b930ba329d1037379036b4b3b930ba37b960611b604482015290519081900360640190fd5b60006006828154811061088457fe5b600091825260208083206004928302018054604080516370a0823160e01b81523095810195909552519195506001600160a01b0316939284926370a0823192602480840193829003018186803b1580156108dd57600080fd5b505afa1580156108f1573d6000803e3d6000fd5b505050506040513d602081101561090757600080fd5b5051600554909150610926906001600160a01b03848116911683611701565b6005546040805163ce5494bb60e01b81526001600160a01b0385811660048301529151600093929092169163ce5494bb9160248082019260209290919082900301818787803b15801561097857600080fd5b505af115801561098c573d6000803e3d6000fd5b505050506040513d60208110156109a257600080fd5b5051604080516370a0823160e01b815230600482015290519192506001600160a01b038316916370a0823191602480820192602092909190829003018186803b1580156109ee57600080fd5b505afa158015610a02573d6000803e3d6000fd5b505050506040513d6020811015610a1857600080fd5b50518214610a5c576040805162461bcd60e51b815260206004820152600c60248201526b1b5a59dc985d194e8818985960a21b604482015290519081900360640190fd5b83546001600160a01b0319166001600160a01b039190911617909255505050565b6001546001600160a01b031681565b60095481565b600060068281548110610aa157fe5b9060005260206000209060040201905080600201544311610ac25750610cb6565b8054604080516370a0823160e01b815230600482015290516000926001600160a01b0316916370a08231916024808301926020929190829003018186803b158015610b0c57600080fd5b505afa158015610b20573d6000803e3d6000fd5b505050506040513d6020811015610b3657600080fd5b5051905080610b4c575043600290910155610cb6565b6000610b5c836002015443610f8e565b90506000610b896008546107878660010154610b836004548761140190919063ffffffff16565b90611401565b6001546002549192506001600160a01b03908116916340c10f199116610bb084600a61145a565b6040518363ffffffff1660e01b815260040180836001600160a01b0316815260200182815260200192505050600060405180830381600087803b158015610bf657600080fd5b505af1158015610c0a573d6000803e3d6000fd5b5050600154604080516340c10f1960e01b81523060048201526024810186905290516001600160a01b0390921693506340c10f19925060448082019260009290919082900301818387803b158015610c6157600080fd5b505af1158015610c75573d6000803e3d6000fd5b50505050610ca3610c988461078764e8d4a510008561140190919063ffffffff16565b6003860154906113a0565b6003850155505043600290920191909155505b50565b600060068281548110610cc857fe5b60009182526020808320858452600782526040808520338087529352909320805460049093029093018054909450610d0d926001600160a01b039190911691906116af565b80546040805191825251849133917fbb757047c2b5f3974fe26b7c10f732e7bce710b0952a71082702781e62ae05959181900360200190a360008082556001909101555050565b60065460005b81811015610d7357610d6b81610a92565b600101610d5a565b5050565b610d7f61139c565b6001600160a01b0316610d90610f7f565b6001600160a01b031614610dd9576040805162461bcd60e51b81526020600482018190526024820152600080516020611ba5833981519152604482015290519081900360640190fd5b8015610de757610de7610d54565b610e2482610e1e60068681548110610dfb57fe5b9060005260206000209060040201600101546008546114c190919063ffffffff16565b906113a0565b6008819055508160068481548110610e3857fe5b906000526020600020906004020160010181905550505050565b610e5a61139c565b6001600160a01b0316610e6b610f7f565b6001600160a01b031614610eb4576040805162461bcd60e51b81526020600482018190526024820152600080516020611ba5833981519152604482015290519081900360640190fd5b600080546040516001600160a01b03909116907f8be0079c531659141344cd1fd0a4f28419497f9722a3daafe3b4186f6b6457e0908390a3600080546001600160a01b0319169055565b6005546001600160a01b031681565b600a81565b6002546001600160a01b03163314610f5d576040805162461bcd60e51b81526020600482015260096024820152686465763a207775743f60b81b604482015290519081900360640190fd5b600280546001600160a01b0319166001600160a01b0392909216919091179055565b6000546001600160a01b031690565b60006003548211610faf57610fa8600a610b8384866114c1565b9050610ff4565b6003548310610fc257610fa882846114c1565b610fa8610fda600354846114c190919063ffffffff16565b610e1e600a610b83876003546114c190919063ffffffff16565b92915050565b60076020908152600092835260408084209091529082529020805460019091015482565b60045481565b6002546001600160a01b031681565b6000806006848154811061104357fe5b600091825260208083208784526007825260408085206001600160a01b03898116875290845281862060049586029093016003810154815484516370a0823160e01b81523098810198909852935191985093969395939492909116926370a08231926024808301939192829003018186803b1580156110c157600080fd5b505afa1580156110d5573d6000803e3d6000fd5b505050506040513d60208110156110eb57600080fd5b505160028501549091504311801561110257508015155b15611162576000611117856002015443610f8e565b9050600061113e6008546107878860010154610b836004548761140190919063ffffffff16565b905061115d611156846107878464e8d4a51000611401565b85906113a0565b935050505b61118a836001015461078d64e8d4a5100061078786886000015461140190919063ffffffff16565b979650505050505050565b6000600683815481106111a457fe5b600091825260208083208684526007825260408085203386529092529220600490910290910191506111d584610a92565b80541561121857600061120a826001015461078d64e8d4a510006107878760030154876000015461140190919063ffffffff16565b9050611216338261151e565b505b815461122f906001600160a01b0316333086611814565b805461123b90846113a0565b80825560038301546112589164e8d4a51000916107879190611401565b6001820155604080518481529051859133917f90890809c654f11d6e72a28fa60149770a0d11ec6c92319d6ceb2bb0a4ea1a159181900360200190a350505050565b6112a261139c565b6001600160a01b03166112b3610f7f565b6001600160a01b0316146112fc576040805162461bcd60e51b81526020600482018190526024820152600080516020611ba5833981519152604482015290519081900360640190fd5b6001600160a01b0381166113415760405162461bcd60e51b8152600401808060200182810382526026815260200180611b386026913960400191505060405180910390fd5b600080546040516001600160a01b03808516939216917f8be0079c531659141344cd1fd0a4f28419497f9722a3daafe3b4186f6b6457e091a3600080546001600160a01b0319166001600160a01b0392909216919091179055565b3390565b6000828201838110156113fa576040805162461bcd60e51b815260206004820152601b60248201527f536166654d6174683a206164646974696f6e206f766572666c6f770000000000604482015290519081900360640190fd5b9392505050565b60008261141057506000610ff4565b8282028284828161141d57fe5b04146113fa5760405162461bcd60e51b8152600401808060200182810382526021815260200180611b846021913960400191505060405180910390fd5b60008082116114b0576040805162461bcd60e51b815260206004820152601a60248201527f536166654d6174683a206469766973696f6e206279207a65726f000000000000604482015290519081900360640190fd5b8183816114b957fe5b049392505050565b600082821115611518576040805162461bcd60e51b815260206004820152601e60248201527f536166654d6174683a207375627472616374696f6e206f766572666c6f770000604482015290519081900360640190fd5b50900390565b600154604080516370a0823160e01b815230600482015290516000926001600160a01b0316916370a08231916024808301926020929190829003018186803b15801561156957600080fd5b505afa15801561157d573d6000803e3d6000fd5b505050506040513d602081101561159357600080fd5b5051905080821115611627576001546040805163a9059cbb60e01b81526001600160a01b038681166004830152602482018590529151919092169163a9059cbb9160448083019260209291908290030181600087803b1580156115f557600080fd5b505af1158015611609573d6000803e3d6000fd5b505050506040513d602081101561161f57600080fd5b506116aa9050565b6001546040805163a9059cbb60e01b81526001600160a01b038681166004830152602482018690529151919092169163a9059cbb9160448083019260209291908290030181600087803b15801561167d57600080fd5b505af1158015611691573d6000803e3d6000fd5b505050506040513d60208110156116a757600080fd5b50505b505050565b604080516001600160a01b038416602482015260448082018490528251808303909101815260649091019091526020810180516001600160e01b031663a9059cbb60e01b1790526116aa908490611874565b801580611787575060408051636eb1769f60e11b81523060048201526001600160a01b03848116602483015291519185169163dd62ed3e91604480820192602092909190829003018186803b15801561175957600080fd5b505afa15801561176d573d6000803e3d6000fd5b505050506040513d602081101561178357600080fd5b5051155b6117c25760405162461bcd60e51b8152600401808060200182810382526036815260200180611bef6036913960400191505060405180910390fd5b604080516001600160a01b038416602482015260448082018490528251808303909101815260649091019091526020810180516001600160e01b031663095ea7b360e01b1790526116aa908490611874565b604080516001600160a01b0380861660248301528416604482015260648082018490528251808303909101815260849091019091526020810180516001600160e01b03166323b872dd60e01b17905261186e908590611874565b50505050565b60606118c9826040518060400160405280602081526020017f5361666545524332303a206c6f772d6c6576656c2063616c6c206661696c6564815250856001600160a01b03166119259092919063ffffffff16565b8051909150156116aa578080602001905160208110156118e857600080fd5b50516116aa5760405162461bcd60e51b815260040180806020018281038252602a815260200180611bc5602a913960400191505060405180910390fd5b6060611934848460008561193c565b949350505050565b60608247101561197d5760405162461bcd60e51b8152600401808060200182810382526026815260200180611b5e6026913960400191505060405180910390fd5b61198685611a8d565b6119d7576040805162461bcd60e51b815260206004820152601d60248201527f416464726573733a2063616c6c20746f206e6f6e2d636f6e7472616374000000604482015290519081900360640190fd5b60006060866001600160a01b031685876040518082805190602001908083835b60208310611a165780518252601f1990920191602091820191016119f7565b6001836020036101000a03801982511681845116808217855250505050505090500191505060006040518083038185875af1925050503d8060008114611a78576040519150601f19603f3d011682016040523d82523d6000602084013e611a7d565b606091505b509150915061118a828286611a93565b3b151590565b60608315611aa25750816113fa565b825115611ab25782518084602001fd5b8160405162461bcd60e51b81526004018080602001828103825283818151815260200191508051906020019080838360005b83811015611afc578181015183820152602001611ae4565b50505050905090810190601f168015611b295780820380516001836020036101000a031916815260200191505b509250505060405180910390fdfe4f776e61626c653a206e6577206f776e657220697320746865207a65726f2061646472657373416464726573733a20696e73756666696369656e742062616c616e636520666f722063616c6c536166654d6174683a206d756c7469706c69636174696f6e206f766572666c6f774f776e61626c653a2063616c6c6572206973206e6f7420746865206f776e65725361666545524332303a204552433230206f7065726174696f6e20646964206e6f7420737563636565645361666545524332303a20617070726f76652066726f6d206e6f6e2d7a65726f20746f206e6f6e2d7a65726f20616c6c6f77616e6365a26469706673582212202107eececc287b651c8065c6f520619c19d3d675fe786302a92538397c15f52664736f6c634300060c0033",
  "immutableReferences": {},
  "source": "// SPDX-License-Identifier: MIT\r\n\r\npragma solidity 0.6.12;\r\n\r\nimport \"@openzeppelin/contracts/token/ERC20/IERC20.sol\";\r\nimport \"@openzeppelin/contracts/token/ERC20/SafeERC20.sol\";\r\nimport \"@openzeppelin/contracts/utils/EnumerableSet.sol\";\r\nimport \"@openzeppelin/contracts/math/SafeMath.sol\";\r\nimport \"@openzeppelin/contracts/access/Ownable.sol\";\r\nimport \"./BambooToken.sol\";\r\n\r\ninterface IMigratorChef {\r\n    // Perform LP token migration from legacy UniswapV2 to PandaSwap.\r\n    // Take the current LP token address and return the new LP token address.\r\n    // Migrator should have full access to the caller's LP token.\r\n    // Return the new LP token address.\r\n    //\r\n    // XXX Migrator must have allowance access to UniswapV2 LP tokens.\r\n    // PandaSwap must mint EXACTLY the same amount of PandaSwap LP tokens or\r\n    // else something bad will happen. Traditional UniswapV2 does not\r\n    // do that so be careful!\r\n    function migrate(IERC20 token) external returns (IERC20);\r\n}\r\n\r\n// MasterChef is the master of Bamboo. He can make Bamboo and he is a fair guy.\r\n//\r\n// Note that it's ownable and the owner wields tremendous power. The ownership\r\n// will be transferred to a governance smart contract once SUSHI is sufficiently\r\n// distributed and the community can show to govern itself.\r\n//\r\n// Have fun reading it. Hopefully it's bug-free. God bless.\r\ncontract MasterChef is Ownable {\r\n    using SafeMath for uint256;\r\n    using SafeERC20 for IERC20;\r\n    // Info of each user.\r\n    struct UserInfo {\r\n        uint256 amount; // How many LP tokens the user has provided.\r\n        uint256 rewardDebt; // Reward debt. See explanation below.\r\n        //\r\n        // We do some fancy math here. Basically, any point in time, the amount of SUSHIs\r\n        // entitled to a user but is pending to be distributed is:\r\n        //\r\n        //   pending reward = (user.amount * pool.accBambooPerShare) - user.rewardDebt\r\n        //\r\n        // Whenever a user deposits or withdraws LP tokens to a pool. Here's what happens:\r\n        //   1. The pool's `accBambooPerShare` (and `lastRewardBlock`) gets updated.\r\n        //   2. User receives the pending reward sent to his/her address.\r\n        //   3. User's `amount` gets updated.\r\n        //   4. User's `rewardDebt` gets updated.\r\n    }\r\n    // Info of each pool.\r\n    struct PoolInfo {\r\n        IERC20 lpToken; // Address of LP token contract.\r\n        uint256 allocPoint; // How many allocation points assigned to this pool. SUSHIs to distribute per block.\r\n        uint256 lastRewardBlock; // Last block number that SUSHIs distribution occurs.\r\n        uint256 accBambooPerShare; // Accumulated SUSHIs per share, times 1e12. See below.\r\n    }\r\n    // The SUSHI TOKEN!\r\n    BambooToken public bamboo;\r\n    // Dev address.\r\n    address public devaddr;\r\n    // Block number when bonus SUSHI period ends.\r\n    uint256 public bonusEndBlock;\r\n    // SUSHI tokens created per block.\r\n    uint256 public bambooPerBlock;\r\n    // Bonus muliplier for early bamboo makers.\r\n    uint256 public constant BONUS_MULTIPLIER = 10;\r\n    // The migrator contract. It has a lot of power. Can only be set through governance (owner).\r\n    IMigratorChef public migrator;\r\n    // Info of each pool.\r\n    PoolInfo[] public poolInfo;\r\n    // Info of each user that stakes LP tokens.\r\n    mapping(uint256 => mapping(address => UserInfo)) public userInfo;\r\n    // Total allocation poitns. Must be the sum of all allocation points in all pools.\r\n    uint256 public totalAllocPoint = 0;\r\n    // The block number when SUSHI mining starts.\r\n    uint256 public startBlock;\r\n    event Deposit(address indexed user, uint256 indexed pid, uint256 amount);\r\n    event Withdraw(address indexed user, uint256 indexed pid, uint256 amount);\r\n    event EmergencyWithdraw(\r\n        address indexed user,\r\n        uint256 indexed pid,\r\n        uint256 amount\r\n    );\r\n\r\n    constructor(\r\n        BambooToken _bamboo,\r\n        address _devaddr,\r\n        uint256 _bambooPerBlock,\r\n        uint256 _startBlock,\r\n        uint256 _bonusEndBlock\r\n    ) public {\r\n        bamboo = _bamboo;\r\n        devaddr = _devaddr;\r\n        bambooPerBlock = _bambooPerBlock;\r\n        bonusEndBlock = _bonusEndBlock;\r\n        startBlock = _startBlock;\r\n    }\r\n\r\n    function poolLength() external view returns (uint256) {\r\n        return poolInfo.length;\r\n    }\r\n\r\n    // Add a new lp to the pool. Can only be called by the owner.\r\n    // XXX DO NOT add the same LP token more than once. Rewards will be messed up if you do.\r\n    function add(\r\n        uint256 _allocPoint,\r\n        IERC20 _lpToken,\r\n        bool _withUpdate\r\n    ) public onlyOwner {\r\n        if (_withUpdate) {\r\n            massUpdatePools();\r\n        }\r\n        uint256 lastRewardBlock =\r\n            block.number > startBlock ? block.number : startBlock;\r\n        totalAllocPoint = totalAllocPoint.add(_allocPoint);\r\n        poolInfo.push(\r\n            PoolInfo({\r\n                lpToken: _lpToken,\r\n                allocPoint: _allocPoint,\r\n                lastRewardBlock: lastRewardBlock,\r\n                accBambooPerShare: 0\r\n            })\r\n        );\r\n    }\r\n\r\n    // Update the given pool's SUSHI allocation point. Can only be called by the owner.\r\n    // XXXXX Renamed this function from \"add()\" to \"adjustPoolRewards()\"\r\n    function set(\r\n        uint256 _pid,\r\n        uint256 _allocPoint,\r\n        bool _withUpdate\r\n    ) public onlyOwner {\r\n        if (_withUpdate) {\r\n            massUpdatePools();\r\n        }\r\n        totalAllocPoint = totalAllocPoint.sub(poolInfo[_pid].allocPoint).add(\r\n            _allocPoint\r\n        );\r\n        poolInfo[_pid].allocPoint = _allocPoint;\r\n    }\r\n\r\n    // Set the migrator contract. Can only be called by the owner.\r\n    function setMigrator(IMigratorChef _migrator) public onlyOwner {\r\n        migrator = _migrator;\r\n    }\r\n\r\n    // Migrate lp token to another lp contract. Can be called by anyone. We trust that migrator contract is good.\r\n    function migrate(uint256 _pid) public {\r\n        require(address(migrator) != address(0), \"migrate: no migrator\");\r\n        PoolInfo storage pool = poolInfo[_pid];\r\n        IERC20 lpToken = pool.lpToken;\r\n        uint256 bal = lpToken.balanceOf(address(this));\r\n        lpToken.safeApprove(address(migrator), bal);\r\n        IERC20 newLpToken = migrator.migrate(lpToken);\r\n        require(bal == newLpToken.balanceOf(address(this)), \"migrate: bad\");\r\n        pool.lpToken = newLpToken;\r\n    }\r\n\r\n    // Return reward multiplier over the given _from to _to block.\r\n    function getMultiplier(uint256 _from, uint256 _to)\r\n        public\r\n        view\r\n        returns (uint256)\r\n    {\r\n        if (_to <= bonusEndBlock) {\r\n            return _to.sub(_from).mul(BONUS_MULTIPLIER);\r\n        } else if (_from >= bonusEndBlock) {\r\n            return _to.sub(_from);\r\n        } else {\r\n            return\r\n                bonusEndBlock.sub(_from).mul(BONUS_MULTIPLIER).add(\r\n                    _to.sub(bonusEndBlock)\r\n                );\r\n        }\r\n    }\r\n\r\n    // View function to see pending SUSHIs on frontend.\r\n    function pendingBamboo(uint256 _pid, address _user)\r\n        external\r\n        view\r\n        returns (uint256)\r\n    {\r\n        PoolInfo storage pool = poolInfo[_pid];\r\n        UserInfo storage user = userInfo[_pid][_user];\r\n        uint256 accBambooPerShare = pool.accBambooPerShare;\r\n        uint256 lpSupply = pool.lpToken.balanceOf(address(this));\r\n        if (block.number > pool.lastRewardBlock && lpSupply != 0) {\r\n            uint256 multiplier =\r\n                getMultiplier(pool.lastRewardBlock, block.number);\r\n            uint256 bambooReward =\r\n                multiplier.mul(bambooPerBlock).mul(pool.allocPoint).div(\r\n                    totalAllocPoint\r\n                );\r\n            accBambooPerShare = accBambooPerShare.add(\r\n                bambooReward.mul(1e12).div(lpSupply)\r\n            );\r\n        }\r\n        return user.amount.mul(accBambooPerShare).div(1e12).sub(user.rewardDebt);\r\n    }\r\n\r\n    // Update reward vairables for all pools. Be careful of gas spending!\r\n    function massUpdatePools() public {\r\n        uint256 length = poolInfo.length;\r\n        for (uint256 pid = 0; pid < length; ++pid) {\r\n            updatePool(pid);\r\n        }\r\n    }\r\n\r\n    // Update reward variables of the given pool to be up-to-date.\r\n    function updatePool(uint256 _pid) public {\r\n        PoolInfo storage pool = poolInfo[_pid];\r\n        if (block.number <= pool.lastRewardBlock) {\r\n            return;\r\n        }\r\n        uint256 lpSupply = pool.lpToken.balanceOf(address(this));\r\n        if (lpSupply == 0) {\r\n            pool.lastRewardBlock = block.number;\r\n            return;\r\n        }\r\n        uint256 multiplier = getMultiplier(pool.lastRewardBlock, block.number);\r\n        uint256 bambooReward =\r\n            multiplier.mul(bambooPerBlock).mul(pool.allocPoint).div(\r\n                totalAllocPoint\r\n            );\r\n        bamboo.mint(devaddr, bambooReward.div(10));\r\n        bamboo.mint(address(this), bambooReward);\r\n        pool.accBambooPerShare = pool.accBambooPerShare.add(\r\n            bambooReward.mul(1e12).div(lpSupply)\r\n        );\r\n        pool.lastRewardBlock = block.number;\r\n    }\r\n\r\n    // Deposit LP tokens to MasterChef for SUSHI allocation.\r\n    function deposit(uint256 _pid, uint256 _amount) public {\r\n        PoolInfo storage pool = poolInfo[_pid];\r\n        UserInfo storage user = userInfo[_pid][msg.sender];\r\n        updatePool(_pid);\r\n        if (user.amount > 0) {\r\n            uint256 pending =\r\n                user.amount.mul(pool.accBambooPerShare).div(1e12).sub(\r\n                    user.rewardDebt\r\n                );\r\n            safeBambooTransfer(msg.sender, pending);\r\n        }\r\n        pool.lpToken.safeTransferFrom(\r\n            address(msg.sender),\r\n            address(this),\r\n            _amount\r\n        );\r\n        user.amount = user.amount.add(_amount);\r\n        user.rewardDebt = user.amount.mul(pool.accBambooPerShare).div(1e12);\r\n        emit Deposit(msg.sender, _pid, _amount);\r\n    }\r\n\r\n    // Withdraw LP tokens from MasterChef.\r\n    function withdraw(uint256 _pid, uint256 _amount) public {\r\n        PoolInfo storage pool = poolInfo[_pid];\r\n        UserInfo storage user = userInfo[_pid][msg.sender];\r\n        require(user.amount >= _amount, \"withdraw: not good\");\r\n        updatePool(_pid);\r\n        uint256 pending =\r\n            user.amount.mul(pool.accBambooPerShare).div(1e12).sub(\r\n                user.rewardDebt\r\n            );\r\n        safeBambooTransfer(msg.sender, pending);\r\n        user.amount = user.amount.sub(_amount);\r\n        user.rewardDebt = user.amount.mul(pool.accBambooPerShare).div(1e12);\r\n        pool.lpToken.safeTransfer(address(msg.sender), _amount);\r\n        emit Withdraw(msg.sender, _pid, _amount);\r\n    }\r\n\r\n    // Withdraw without caring about rewards. EMERGENCY ONLY.\r\n    function emergencyWithdraw(uint256 _pid) public {\r\n        PoolInfo storage pool = poolInfo[_pid];\r\n        UserInfo storage user = userInfo[_pid][msg.sender];\r\n        pool.lpToken.safeTransfer(address(msg.sender), user.amount);\r\n        emit EmergencyWithdraw(msg.sender, _pid, user.amount);\r\n        user.amount = 0;\r\n        user.rewardDebt = 0;\r\n    }\r\n\r\n    // Safe bamboo transfer function, just in case if rounding error causes pool to not have enough SUSHIs.\r\n    function safeBambooTransfer(address _to, uint256 _amount) internal {\r\n        uint256 bambooBal = bamboo.balanceOf(address(this));\r\n        if (_amount > bambooBal) {\r\n            bamboo.transfer(_to, bambooBal);\r\n        } else {\r\n            bamboo.transfer(_to, _amount);\r\n        }\r\n    }\r\n\r\n    // Update dev address by the previous dev.\r\n    function dev(address _devaddr) public {\r\n        require(msg.sender == devaddr, \"dev: wut?\");\r\n        devaddr = _devaddr;\r\n    }\r\n}\r\n",
  "sourcePath": "C:/Users/user/Documents/GitHub/pandaswap-contracts/contracts/MasterChef.sol",
  "compiler": {
    "name": "solc",
    "version": "0.6.12+commit.27d51765.Emscripten.clang"
  },
  "schemaVersion": "3.3.4",
  "updatedAt": "2021-03-21T21:12:14.471Z",
  "networkType": "ethereum",
  "devdoc": {
    "kind": "dev",
    "methods": {
      "owner()": {
        "details": "Returns the address of the current owner."
      },
      "renounceOwnership()": {
        "details": "Leaves the contract without owner. It will not be possible to call `onlyOwner` functions anymore. Can only be called by the current owner. NOTE: Renouncing ownership will leave the contract without an owner, thereby removing any functionality that is only available to the owner."
      },
      "transferOwnership(address)": {
        "details": "Transfers ownership of the contract to a new account (`newOwner`). Can only be called by the current owner."
      }
    },
    "version": 1
  },
  "userdoc": {
    "kind": "user",
    "methods": {},
    "version": 1
  }
}