{
  "contractName": "RewarderMock",
  "abi": [
    {
      "inputs": [
        {
          "internalType": "uint256",
          "name": "_rewardMultiplier",
          "type": "uint256"
        },
        {
          "internalType": "contract IERC20",
          "name": "_rewardToken",
          "type": "address"
        }
      ],
      "stateMutability": "nonpayable",
      "type": "constructor"
    },
    {
      "inputs": [
        {
          "internalType": "uint256",
          "name": "",
          "type": "uint256"
        },
        {
          "internalType": "address",
          "name": "user",
          "type": "address"
        },
        {
          "internalType": "uint256",
          "name": "bambooAmount",
          "type": "uint256"
        }
      ],
      "name": "onBambooReward",
      "outputs": [],
      "stateMutability": "nonpayable",
      "type": "function"
    },
    {
      "inputs": [
        {
          "internalType": "uint256",
          "name": "pid",
          "type": "uint256"
        },
        {
          "internalType": "address",
          "name": "user",
          "type": "address"
        },
        {
          "internalType": "uint256",
          "name": "bambooAmount",
          "type": "uint256"
        }
      ],
      "name": "pendingTokens",
      "outputs": [
        {
          "internalType": "contract IERC20[]",
          "name": "rewardTokens",
          "type": "address[]"
        },
        {
          "internalType": "uint256[]",
          "name": "rewardAmounts",
          "type": "uint256[]"
        }
      ],
      "stateMutability": "nonpayable",
      "type": "function"
    }
  ],
  "bytecode": "0x60c060405234801561001057600080fd5b5060405161061a38038061061a8339818101604052604081101561003357600080fd5b5080516020909101516080829052606081901b6001600160601b03191660a0526001600160a01b031661058d61008d60003980610162528061026d528061031b52806103545250806101da528061023b525061058d6000f3fe608060405234801561001057600080fd5b50600436106100365760003560e01c8063d63b3c491461003b578063da39e53d14610106575b600080fd5b61006d6004803603606081101561005157600080fd5b508035906001600160a01b03602082013516906040013561013a565b604051808060200180602001838103835285818151815260200191508051906020019060200280838360005b838110156100b1578181015183820152602001610099565b50505050905001838103825284818151815260200191508051906020019060200280838360005b838110156100f05781810151838201526020016100d8565b5050505090500194505050505060405180910390f35b6101386004803603606081101561011c57600080fd5b508035906001600160a01b03602082013516906040013561022a565b005b60408051600180825281830190925260609182918291602080830190803683370190505090507f00000000000000000000000000000000000000000000000000000000000000008160008151811061018e57fe5b6001600160a01b039290921660209283029190910190910152604080516001808252818301909252606091816020016020820280368337019050509050670de0b6b3a76400006101fe867f0000000000000000000000000000000000000000000000000000000000000000610382565b8161020557fe5b048160008151811061021357fe5b602090810291909101015290969095509350505050565b6000670de0b6b3a764000061025f837f0000000000000000000000000000000000000000000000000000000000000000610382565b8161026657fe5b04905060007f00000000000000000000000000000000000000000000000000000000000000006001600160a01b03166370a08231306040518263ffffffff1660e01b815260040180826001600160a01b0316815260200191505060206040518083038186803b1580156102d857600080fd5b505afa1580156102ec573d6000803e3d6000fd5b505050506040513d602081101561030257600080fd5b5051905080821115610347576103426001600160a01b037f00000000000000000000000000000000000000000000000000000000000000001685836103f4565b61037b565b61037b6001600160a01b037f00000000000000000000000000000000000000000000000000000000000000001685846103f4565b5050505050565b600081158061039d5750508082028282828161039a57fe5b04145b6103ee576040805162461bcd60e51b815260206004820152601860248201527f426f72696e674d6174683a204d756c204f766572666c6f770000000000000000604482015290519081900360640190fd5b92915050565b604080516001600160a01b038481166024830152604480830185905283518084039091018152606490920183526020820180516001600160e01b031663a9059cbb60e01b178152925182516000946060949389169392918291908083835b602083106104715780518252601f199092019160209182019101610452565b6001836020036101000a0380198251168184511680821785525050505050509050019150506000604051808303816000865af19150503d80600081146104d3576040519150601f19603f3d011682016040523d82523d6000602084013e6104d8565b606091505b5091509150818015610506575080511580610506575080806020019051602081101561050357600080fd5b50515b61037b576040805162461bcd60e51b815260206004820152601c60248201527f426f72696e6745524332303a205472616e73666572206661696c656400000000604482015290519081900360640190fdfea2646970667358221220d41c0db4f728416ea3e5741ea9f69484fe686125a9e3bb77d9597cde360a17f764736f6c634300060c0033",
  "immutableReferences": {
    "5661": [
      {
        "length": 32,
        "start": 474
      },
      {
        "length": 32,
        "start": 571
      }
    ],
    "5663": [
      {
        "length": 32,
        "start": 354
      },
      {
        "length": 32,
        "start": 621
      },
      {
        "length": 32,
        "start": 795
      },
      {
        "length": 32,
        "start": 852
      }
    ]
  },
  "source": "// SPDX-License-Identifier: MIT\n\npragma solidity 0.6.12;\nimport \"../interfaces/IRewarder.sol\";\nimport \"@boringcrypto/boring-solidity/contracts/libraries/BoringERC20.sol\";\nimport \"@boringcrypto/boring-solidity/contracts/libraries/BoringMath.sol\";\n\n\ncontract RewarderMock is IRewarder {\n    using BoringMath for uint256;\n    using BoringERC20 for IERC20;\n    uint256 private immutable rewardMultiplier;\n    IERC20 private immutable rewardToken;\n    uint256 private constant REWARD_TOKEN_DIVISOR = 1e18;\n\n    constructor (uint256 _rewardMultiplier, IERC20 _rewardToken) public {\n        rewardMultiplier = _rewardMultiplier;\n        rewardToken = _rewardToken;\n    }\n\n    function onBambooReward (uint256, address user, uint256 bambooAmount) override external {\n        uint256 pendingReward = bambooAmount.mul(rewardMultiplier) / REWARD_TOKEN_DIVISOR;\n        uint256 rewardBal = rewardToken.balanceOf(address(this));\n        if (pendingReward > rewardBal) {\n            rewardToken.safeTransfer(user, rewardBal);\n        } else {\n            rewardToken.safeTransfer(user, pendingReward);\n        }\n    }\n    function pendingTokens(uint256 pid, address user, uint256 bambooAmount) override external returns (IERC20[] memory rewardTokens, uint256[] memory rewardAmounts) {\n        IERC20[] memory _rewardTokens = new IERC20[](1);\n        _rewardTokens[0] = (rewardToken);\n        uint256[] memory _rewardAmounts = new uint256[](1);\n        _rewardAmounts[0] = bambooAmount.mul(rewardMultiplier) / REWARD_TOKEN_DIVISOR;\n        return (_rewardTokens, _rewardAmounts);\n    }\n  \n}",
  "sourcePath": "/Users/josephliu/workspace/pandaswap-contracts/contracts/mocks/RewarderMock.sol",
  "compiler": {
    "name": "solc",
    "version": "0.6.12+commit.27d51765.Emscripten.clang"
  },
  "schemaVersion": "3.3.4",
  "updatedAt": "2021-04-03T04:46:17.909Z",
  "devdoc": {
    "kind": "dev",
    "methods": {},
    "version": 1
  },
  "userdoc": {
    "kind": "user",
    "methods": {},
    "version": 1
  }
}