{
  "contractName": "RewarderBrokenMock",
  "abi": [
    {
      "inputs": [
        {
          "internalType": "uint256",
          "name": "",
          "type": "uint256"
        },
        {
          "internalType": "address",
          "name": "",
          "type": "address"
        },
        {
          "internalType": "uint256",
          "name": "",
          "type": "uint256"
        }
      ],
      "name": "onBambooReward",
      "outputs": [],
      "stateMutability": "nonpayable",
      "type": "function"
    },
    {
      "inputs": [
        {
          "internalType": "uint256",
          "name": "pid",
          "type": "uint256"
        },
        {
          "internalType": "address",
          "name": "user",
          "type": "address"
        },
        {
          "internalType": "uint256",
          "name": "bambooAmount",
          "type": "uint256"
        }
      ],
      "name": "pendingTokens",
      "outputs": [
        {
          "internalType": "contract IERC20[]",
          "name": "rewardTokens",
          "type": "address[]"
        },
        {
          "internalType": "uint256[]",
          "name": "rewardAmounts",
          "type": "uint256[]"
        }
      ],
      "stateMutability": "nonpayable",
      "type": "function"
    }
  ],
  "bytecode": "0x608060405234801561001057600080fd5b50610178806100206000396000f3fe608060405234801561001057600080fd5b50600436106100365760003560e01c8063d63b3c491461003b578063da39e53d14610106575b600080fd5b61006d6004803603606081101561005157600080fd5b508035906001600160a01b03602082013516906040013561013a565b604051808060200180602001838103835285818151815260200191508051906020019060200280838360005b838110156100b1578181015183820152602001610099565b50505050905001838103825284818151815260200191508051906020019060200280838360005b838110156100f05781810151838201526020016100d8565b5050505090500194505050505060405180910390f35b6101386004803603606081101561011c57600080fd5b508035906001600160a01b036020820135169060400135610036565b005b606080600080fdfea26469706673582212209dc083ee96a8a563fb13837099e20c9e524c581816fa63c43fe9f0756f37edc064736f6c634300060c0033",
  "immutableReferences": {},
  "source": "// SPDX-License-Identifier: MIT\r\n\r\npragma solidity 0.6.12;\r\nimport \"../interfaces/IRewarder.sol\";\r\n\r\n\r\ncontract RewarderBrokenMock is IRewarder {\r\n\r\n    function onBambooReward (uint256, address, uint256) override external {\r\n        revert();\r\n    }\r\n\r\n    function pendingTokens(uint256 pid, address user, uint256 bambooAmount) override external returns (IERC20[] memory rewardTokens, uint256[] memory rewardAmounts){\r\n        revert();\r\n    }\r\n  \r\n}",
  "sourcePath": "C:/Users/user/Documents/GitHub/pandaswap-contracts/contracts/mocks/RewarderBrokenMock.sol",
  "compiler": {
    "name": "solc",
    "version": "0.6.12+commit.27d51765.Emscripten.clang"
  },
  "schemaVersion": "3.3.4",
  "updatedAt": "2021-03-21T21:12:05.431Z",
  "devdoc": {
    "kind": "dev",
    "methods": {},
    "version": 1
  },
  "userdoc": {
    "kind": "user",
    "methods": {},
    "version": 1
  }
}